{
	"contracts/MyContracts/lec01.sol": {
		"MyContracts": {
			"abi": [
				{
					"anonymous": false,
					"inputs": [
						{
							"indexed": false,
							"internalType": "address",
							"name": "sender",
							"type": "address"
						}
					],
					"name": "SenderLogged",
					"type": "event"
				},
				{
					"inputs": [],
					"name": "add",
					"outputs": [
						{
							"internalType": "uint256",
							"name": "",
							"type": "uint256"
						}
					],
					"stateMutability": "view",
					"type": "function"
				},
				{
					"inputs": [],
					"name": "attendence",
					"outputs": [
						{
							"internalType": "bool",
							"name": "",
							"type": "bool"
						}
					],
					"stateMutability": "nonpayable",
					"type": "function"
				},
				{
					"inputs": [],
					"name": "dec",
					"outputs": [
						{
							"internalType": "uint256",
							"name": "",
							"type": "uint256"
						}
					],
					"stateMutability": "nonpayable",
					"type": "function"
				},
				{
					"inputs": [],
					"name": "inc",
					"outputs": [
						{
							"internalType": "uint256",
							"name": "",
							"type": "uint256"
						}
					],
					"stateMutability": "nonpayable",
					"type": "function"
				},
				{
					"inputs": [],
					"name": "numCheck",
					"outputs": [
						{
							"internalType": "string",
							"name": "",
							"type": "string"
						}
					],
					"stateMutability": "nonpayable",
					"type": "function"
				},
				{
					"inputs": [],
					"name": "printSender",
					"outputs": [],
					"stateMutability": "nonpayable",
					"type": "function"
				},
				{
					"inputs": [
						{
							"internalType": "uint256",
							"name": "num",
							"type": "uint256"
						}
					],
					"name": "requireUsingEvenOdd",
					"outputs": [
						{
							"internalType": "uint256",
							"name": "",
							"type": "uint256"
						}
					],
					"stateMutability": "pure",
					"type": "function"
				},
				{
					"inputs": [
						{
							"internalType": "string",
							"name": "x",
							"type": "string"
						},
						{
							"internalType": "string",
							"name": "y",
							"type": "string"
						}
					],
					"name": "stringConcatinate",
					"outputs": [
						{
							"internalType": "string",
							"name": "",
							"type": "string"
						}
					],
					"stateMutability": "pure",
					"type": "function"
				}
			],
			"devdoc": {
				"kind": "dev",
				"methods": {},
				"version": 1
			},
			"evm": {
				"assembly": "    /* \"contracts/MyContracts/lec01.sol\":60:1250  contract MyContracts {... */\n  mstore(0x40, 0x80)\n    /* \"contracts/MyContracts/lec01.sol\":88:118  string message = \"Hello World\" */\n  mload(0x40)\n  dup1\n  0x40\n  add\n  0x40\n  mstore\n  dup1\n  0x0b\n  dup2\n  mstore\n  0x20\n  add\n  0x48656c6c6f20576f726c64000000000000000000000000000000000000000000\n  dup2\n  mstore\n  pop\n  0x00\n  swap1\n  dup2\n  tag_1\n  swap2\n  swap1\n  tag_2\n  jump\t// in\ntag_1:\n  pop\n    /* \"contracts/MyContracts/lec01.sol\":132:133  1 */\n  0x01\n    /* \"contracts/MyContracts/lec01.sol\":125:133  uint a=1 */\n  dup1\n  sstore\n    /* \"contracts/MyContracts/lec01.sol\":147:148  2 */\n  0x02\n    /* \"contracts/MyContracts/lec01.sol\":140:148  uint b=2 */\n  dup1\n  sstore\n    /* \"contracts/MyContracts/lec01.sol\":171:176  false */\n  0x00\n    /* \"contracts/MyContracts/lec01.sol\":155:176  bool isPresent= false */\n  0x03\n  exp(0x0100, 0x00)\n  dup2\n  sload\n  dup2\n  0xff\n  mul\n  not\n  and\n  swap1\n  dup4\n  iszero\n  iszero\n  mul\n  or\n  swap1\n  sstore\n  pop\n    /* \"contracts/MyContracts/lec01.sol\":183:203  string hello=\"Hello\" */\n  mload(0x40)\n  dup1\n  0x40\n  add\n  0x40\n  mstore\n  dup1\n  0x05\n  dup2\n  mstore\n  0x20\n  add\n  0x48656c6c6f000000000000000000000000000000000000000000000000000000\n  dup2\n  mstore\n  pop\n  0x04\n  swap1\n  dup2\n  tag_3\n  swap2\n  swap1\n  tag_2\n  jump\t// in\ntag_3:\n  pop\n    /* \"contracts/MyContracts/lec01.sol\":210:230  string world=\"World\" */\n  mload(0x40)\n  dup1\n  0x40\n  add\n  0x40\n  mstore\n  dup1\n  0x05\n  dup2\n  mstore\n  0x20\n  add\n  0x576f726c64000000000000000000000000000000000000000000000000000000\n  dup2\n  mstore\n  pop\n  0x05\n  swap1\n  dup2\n  tag_4\n  swap2\n  swap1\n  tag_2\n  jump\t// in\ntag_4:\n  pop\n    /* \"contracts/MyContracts/lec01.sol\":60:1250  contract MyContracts {... */\n  callvalue\n  dup1\n  iszero\n  tag_5\n  jumpi\n  0x00\n  dup1\n  revert\ntag_5:\n  pop\n  jump(tag_6)\n    /* \"#utility.yul\":7:106   */\ntag_7:\n    /* \"#utility.yul\":59:65   */\n  0x00\n    /* \"#utility.yul\":93:98   */\n  dup2\n    /* \"#utility.yul\":87:99   */\n  mload\n    /* \"#utility.yul\":77:99   */\n  swap1\n  pop\n    /* \"#utility.yul\":7:106   */\n  swap2\n  swap1\n  pop\n  jump\t// out\n    /* \"#utility.yul\":112:292   */\ntag_8:\n    /* \"#utility.yul\":160:237   */\n  0x4e487b7100000000000000000000000000000000000000000000000000000000\n    /* \"#utility.yul\":157:158   */\n  0x00\n    /* \"#utility.yul\":150:238   */\n  mstore\n    /* \"#utility.yul\":257:261   */\n  0x41\n    /* \"#utility.yul\":254:255   */\n  0x04\n    /* \"#utility.yul\":247:262   */\n  mstore\n    /* \"#utility.yul\":281:285   */\n  0x24\n    /* \"#utility.yul\":278:279   */\n  0x00\n    /* \"#utility.yul\":271:286   */\n  revert\n    /* \"#utility.yul\":298:478   */\ntag_9:\n    /* \"#utility.yul\":346:423   */\n  0x4e487b7100000000000000000000000000000000000000000000000000000000\n    /* \"#utility.yul\":343:344   */\n  0x00\n    /* \"#utility.yul\":336:424   */\n  mstore\n    /* \"#utility.yul\":443:447   */\n  0x22\n    /* \"#utility.yul\":440:441   */\n  0x04\n    /* \"#utility.yul\":433:448   */\n  mstore\n    /* \"#utility.yul\":467:471   */\n  0x24\n    /* \"#utility.yul\":464:465   */\n  0x00\n    /* \"#utility.yul\":457:472   */\n  revert\n    /* \"#utility.yul\":484:804   */\ntag_10:\n    /* \"#utility.yul\":528:534   */\n  0x00\n    /* \"#utility.yul\":565:566   */\n  0x02\n    /* \"#utility.yul\":559:563   */\n  dup3\n    /* \"#utility.yul\":555:567   */\n  div\n    /* \"#utility.yul\":545:567   */\n  swap1\n  pop\n    /* \"#utility.yul\":612:613   */\n  0x01\n    /* \"#utility.yul\":606:610   */\n  dup3\n    /* \"#utility.yul\":602:614   */\n  and\n    /* \"#utility.yul\":633:651   */\n  dup1\n    /* \"#utility.yul\":623:704   */\n  tag_32\n  jumpi\n    /* \"#utility.yul\":689:693   */\n  0x7f\n    /* \"#utility.yul\":681:687   */\n  dup3\n    /* \"#utility.yul\":677:694   */\n  and\n    /* \"#utility.yul\":667:694   */\n  swap2\n  pop\n    /* \"#utility.yul\":623:704   */\ntag_32:\n    /* \"#utility.yul\":751:753   */\n  0x20\n    /* \"#utility.yul\":743:749   */\n  dup3\n    /* \"#utility.yul\":740:754   */\n  lt\n    /* \"#utility.yul\":720:738   */\n  dup2\n    /* \"#utility.yul\":717:755   */\n  sub\n    /* \"#utility.yul\":714:798   */\n  tag_33\n  jumpi\n    /* \"#utility.yul\":770:788   */\n  tag_34\n  tag_9\n  jump\t// in\ntag_34:\n    /* \"#utility.yul\":714:798   */\ntag_33:\n    /* \"#utility.yul\":535:804   */\n  pop\n    /* \"#utility.yul\":484:804   */\n  swap2\n  swap1\n  pop\n  jump\t// out\n    /* \"#utility.yul\":810:951   */\ntag_11:\n    /* \"#utility.yul\":859:863   */\n  0x00\n    /* \"#utility.yul\":882:885   */\n  dup2\n    /* \"#utility.yul\":874:885   */\n  swap1\n  pop\n    /* \"#utility.yul\":905:908   */\n  dup2\n    /* \"#utility.yul\":902:903   */\n  0x00\n    /* \"#utility.yul\":895:909   */\n  mstore\n    /* \"#utility.yul\":939:943   */\n  0x20\n    /* \"#utility.yul\":936:937   */\n  0x00\n    /* \"#utility.yul\":926:944   */\n  keccak256\n    /* \"#utility.yul\":918:944   */\n  swap1\n  pop\n    /* \"#utility.yul\":810:951   */\n  swap2\n  swap1\n  pop\n  jump\t// out\n    /* \"#utility.yul\":957:1050   */\ntag_12:\n    /* \"#utility.yul\":994:1000   */\n  0x00\n    /* \"#utility.yul\":1041:1043   */\n  0x20\n    /* \"#utility.yul\":1036:1038   */\n  0x1f\n    /* \"#utility.yul\":1029:1034   */\n  dup4\n    /* \"#utility.yul\":1025:1039   */\n  add\n    /* \"#utility.yul\":1021:1044   */\n  div\n    /* \"#utility.yul\":1011:1044   */\n  swap1\n  pop\n    /* \"#utility.yul\":957:1050   */\n  swap2\n  swap1\n  pop\n  jump\t// out\n    /* \"#utility.yul\":1056:1163   */\ntag_13:\n    /* \"#utility.yul\":1100:1108   */\n  0x00\n    /* \"#utility.yul\":1150:1155   */\n  dup3\n    /* \"#utility.yul\":1144:1148   */\n  dup3\n    /* \"#utility.yul\":1140:1156   */\n  shl\n    /* \"#utility.yul\":1119:1156   */\n  swap1\n  pop\n    /* \"#utility.yul\":1056:1163   */\n  swap3\n  swap2\n  pop\n  pop\n  jump\t// out\n    /* \"#utility.yul\":1169:1562   */\ntag_14:\n    /* \"#utility.yul\":1238:1244   */\n  0x00\n    /* \"#utility.yul\":1288:1289   */\n  0x08\n    /* \"#utility.yul\":1276:1286   */\n  dup4\n    /* \"#utility.yul\":1272:1290   */\n  mul\n    /* \"#utility.yul\":1311:1408   */\n  tag_39\n    /* \"#utility.yul\":1341:1407   */\n  0xffffffffffffffffffffffffffffffffffffffffffffffffffffffffffffffff\n    /* \"#utility.yul\":1330:1339   */\n  dup3\n    /* \"#utility.yul\":1311:1408   */\n  tag_13\n  jump\t// in\ntag_39:\n    /* \"#utility.yul\":1429:1468   */\n  tag_40\n    /* \"#utility.yul\":1459:1467   */\n  dup7\n    /* \"#utility.yul\":1448:1457   */\n  dup4\n    /* \"#utility.yul\":1429:1468   */\n  tag_13\n  jump\t// in\ntag_40:\n    /* \"#utility.yul\":1417:1468   */\n  swap6\n  pop\n    /* \"#utility.yul\":1501:1505   */\n  dup1\n    /* \"#utility.yul\":1497:1506   */\n  not\n    /* \"#utility.yul\":1490:1495   */\n  dup5\n    /* \"#utility.yul\":1486:1507   */\n  and\n    /* \"#utility.yul\":1477:1507   */\n  swap4\n  pop\n    /* \"#utility.yul\":1550:1554   */\n  dup1\n    /* \"#utility.yul\":1540:1548   */\n  dup7\n    /* \"#utility.yul\":1536:1555   */\n  and\n    /* \"#utility.yul\":1529:1534   */\n  dup5\n    /* \"#utility.yul\":1526:1556   */\n  or\n    /* \"#utility.yul\":1516:1556   */\n  swap3\n  pop\n    /* \"#utility.yul\":1245:1562   */\n  pop\n  pop\n    /* \"#utility.yul\":1169:1562   */\n  swap4\n  swap3\n  pop\n  pop\n  pop\n  jump\t// out\n    /* \"#utility.yul\":1568:1645   */\ntag_15:\n    /* \"#utility.yul\":1605:1612   */\n  0x00\n    /* \"#utility.yul\":1634:1639   */\n  dup2\n    /* \"#utility.yul\":1623:1639   */\n  swap1\n  pop\n    /* \"#utility.yul\":1568:1645   */\n  swap2\n  swap1\n  pop\n  jump\t// out\n    /* \"#utility.yul\":1651:1711   */\ntag_16:\n    /* \"#utility.yul\":1679:1682   */\n  0x00\n    /* \"#utility.yul\":1700:1705   */\n  dup2\n    /* \"#utility.yul\":1693:1705   */\n  swap1\n  pop\n    /* \"#utility.yul\":1651:1711   */\n  swap2\n  swap1\n  pop\n  jump\t// out\n    /* \"#utility.yul\":1717:1859   */\ntag_17:\n    /* \"#utility.yul\":1767:1776   */\n  0x00\n    /* \"#utility.yul\":1800:1853   */\n  tag_44\n    /* \"#utility.yul\":1818:1852   */\n  tag_45\n    /* \"#utility.yul\":1827:1851   */\n  tag_46\n    /* \"#utility.yul\":1845:1850   */\n  dup5\n    /* \"#utility.yul\":1827:1851   */\n  tag_15\n  jump\t// in\ntag_46:\n    /* \"#utility.yul\":1818:1852   */\n  tag_16\n  jump\t// in\ntag_45:\n    /* \"#utility.yul\":1800:1853   */\n  tag_15\n  jump\t// in\ntag_44:\n    /* \"#utility.yul\":1787:1853   */\n  swap1\n  pop\n    /* \"#utility.yul\":1717:1859   */\n  swap2\n  swap1\n  pop\n  jump\t// out\n    /* \"#utility.yul\":1865:1940   */\ntag_18:\n    /* \"#utility.yul\":1908:1911   */\n  0x00\n    /* \"#utility.yul\":1929:1934   */\n  dup2\n    /* \"#utility.yul\":1922:1934   */\n  swap1\n  pop\n    /* \"#utility.yul\":1865:1940   */\n  swap2\n  swap1\n  pop\n  jump\t// out\n    /* \"#utility.yul\":1946:2215   */\ntag_19:\n    /* \"#utility.yul\":2056:2095   */\n  tag_49\n    /* \"#utility.yul\":2087:2094   */\n  dup4\n    /* \"#utility.yul\":2056:2095   */\n  tag_17\n  jump\t// in\ntag_49:\n    /* \"#utility.yul\":2117:2208   */\n  tag_50\n    /* \"#utility.yul\":2166:2207   */\n  tag_51\n    /* \"#utility.yul\":2190:2206   */\n  dup3\n    /* \"#utility.yul\":2166:2207   */\n  tag_18\n  jump\t// in\ntag_51:\n    /* \"#utility.yul\":2158:2164   */\n  dup5\n    /* \"#utility.yul\":2151:2155   */\n  dup5\n    /* \"#utility.yul\":2145:2156   */\n  sload\n    /* \"#utility.yul\":2117:2208   */\n  tag_14\n  jump\t// in\ntag_50:\n    /* \"#utility.yul\":2111:2115   */\n  dup3\n    /* \"#utility.yul\":2104:2209   */\n  sstore\n    /* \"#utility.yul\":2022:2215   */\n  pop\n    /* \"#utility.yul\":1946:2215   */\n  pop\n  pop\n  pop\n  jump\t// out\n    /* \"#utility.yul\":2221:2294   */\ntag_20:\n    /* \"#utility.yul\":2266:2269   */\n  0x00\n    /* \"#utility.yul\":2221:2294   */\n  swap1\n  jump\t// out\n    /* \"#utility.yul\":2300:2489   */\ntag_21:\n    /* \"#utility.yul\":2377:2409   */\n  tag_54\n  tag_20\n  jump\t// in\ntag_54:\n    /* \"#utility.yul\":2418:2483   */\n  tag_55\n    /* \"#utility.yul\":2476:2482   */\n  dup2\n    /* \"#utility.yul\":2468:2474   */\n  dup5\n    /* \"#utility.yul\":2462:2466   */\n  dup5\n    /* \"#utility.yul\":2418:2483   */\n  tag_19\n  jump\t// in\ntag_55:\n    /* \"#utility.yul\":2353:2489   */\n  pop\n    /* \"#utility.yul\":2300:2489   */\n  pop\n  pop\n  jump\t// out\n    /* \"#utility.yul\":2495:2681   */\ntag_22:\n    /* \"#utility.yul\":2555:2675   */\ntag_57:\n    /* \"#utility.yul\":2572:2575   */\n  dup2\n    /* \"#utility.yul\":2565:2570   */\n  dup2\n    /* \"#utility.yul\":2562:2576   */\n  lt\n    /* \"#utility.yul\":2555:2675   */\n  iszero\n  tag_59\n  jumpi\n    /* \"#utility.yul\":2626:2665   */\n  tag_60\n    /* \"#utility.yul\":2663:2664   */\n  0x00\n    /* \"#utility.yul\":2656:2661   */\n  dup3\n    /* \"#utility.yul\":2626:2665   */\n  tag_21\n  jump\t// in\ntag_60:\n    /* \"#utility.yul\":2599:2600   */\n  0x01\n    /* \"#utility.yul\":2592:2597   */\n  dup2\n    /* \"#utility.yul\":2588:2601   */\n  add\n    /* \"#utility.yul\":2579:2601   */\n  swap1\n  pop\n    /* \"#utility.yul\":2555:2675   */\n  jump(tag_57)\ntag_59:\n    /* \"#utility.yul\":2495:2681   */\n  pop\n  pop\n  jump\t// out\n    /* \"#utility.yul\":2687:3230   */\ntag_23:\n    /* \"#utility.yul\":2788:2790   */\n  0x1f\n    /* \"#utility.yul\":2783:2786   */\n  dup3\n    /* \"#utility.yul\":2780:2791   */\n  gt\n    /* \"#utility.yul\":2777:3223   */\n  iszero\n  tag_62\n  jumpi\n    /* \"#utility.yul\":2822:2860   */\n  tag_63\n    /* \"#utility.yul\":2854:2859   */\n  dup2\n    /* \"#utility.yul\":2822:2860   */\n  tag_11\n  jump\t// in\ntag_63:\n    /* \"#utility.yul\":2906:2935   */\n  tag_64\n    /* \"#utility.yul\":2924:2934   */\n  dup5\n    /* \"#utility.yul\":2906:2935   */\n  tag_12\n  jump\t// in\ntag_64:\n    /* \"#utility.yul\":2896:2904   */\n  dup2\n    /* \"#utility.yul\":2892:2936   */\n  add\n    /* \"#utility.yul\":3089:3091   */\n  0x20\n    /* \"#utility.yul\":3077:3087   */\n  dup6\n    /* \"#utility.yul\":3074:3092   */\n  lt\n    /* \"#utility.yul\":3071:3120   */\n  iszero\n  tag_65\n  jumpi\n    /* \"#utility.yul\":3110:3118   */\n  dup2\n    /* \"#utility.yul\":3095:3118   */\n  swap1\n  pop\n    /* \"#utility.yul\":3071:3120   */\ntag_65:\n    /* \"#utility.yul\":3133:3213   */\n  tag_66\n    /* \"#utility.yul\":3189:3211   */\n  tag_67\n    /* \"#utility.yul\":3207:3210   */\n  dup6\n    /* \"#utility.yul\":3189:3211   */\n  tag_12\n  jump\t// in\ntag_67:\n    /* \"#utility.yul\":3179:3187   */\n  dup4\n    /* \"#utility.yul\":3175:3212   */\n  add\n    /* \"#utility.yul\":3162:3173   */\n  dup3\n    /* \"#utility.yul\":3133:3213   */\n  tag_22\n  jump\t// in\ntag_66:\n    /* \"#utility.yul\":2792:3223   */\n  pop\n  pop\n    /* \"#utility.yul\":2777:3223   */\ntag_62:\n    /* \"#utility.yul\":2687:3230   */\n  pop\n  pop\n  pop\n  jump\t// out\n    /* \"#utility.yul\":3236:3353   */\ntag_24:\n    /* \"#utility.yul\":3290:3298   */\n  0x00\n    /* \"#utility.yul\":3340:3345   */\n  dup3\n    /* \"#utility.yul\":3334:3338   */\n  dup3\n    /* \"#utility.yul\":3330:3346   */\n  shr\n    /* \"#utility.yul\":3309:3346   */\n  swap1\n  pop\n    /* \"#utility.yul\":3236:3353   */\n  swap3\n  swap2\n  pop\n  pop\n  jump\t// out\n    /* \"#utility.yul\":3359:3528   */\ntag_25:\n    /* \"#utility.yul\":3403:3409   */\n  0x00\n    /* \"#utility.yul\":3436:3487   */\n  tag_70\n    /* \"#utility.yul\":3484:3485   */\n  0x00\n    /* \"#utility.yul\":3480:3486   */\n  not\n    /* \"#utility.yul\":3472:3477   */\n  dup5\n    /* \"#utility.yul\":3469:3470   */\n  0x08\n    /* \"#utility.yul\":3465:3478   */\n  mul\n    /* \"#utility.yul\":3436:3487   */\n  tag_24\n  jump\t// in\ntag_70:\n    /* \"#utility.yul\":3432:3488   */\n  not\n    /* \"#utility.yul\":3517:3521   */\n  dup1\n    /* \"#utility.yul\":3511:3515   */\n  dup4\n    /* \"#utility.yul\":3507:3522   */\n  and\n    /* \"#utility.yul\":3497:3522   */\n  swap2\n  pop\n    /* \"#utility.yul\":3410:3528   */\n  pop\n    /* \"#utility.yul\":3359:3528   */\n  swap3\n  swap2\n  pop\n  pop\n  jump\t// out\n    /* \"#utility.yul\":3533:3828   */\ntag_26:\n    /* \"#utility.yul\":3609:3613   */\n  0x00\n    /* \"#utility.yul\":3755:3784   */\n  tag_72\n    /* \"#utility.yul\":3780:3783   */\n  dup4\n    /* \"#utility.yul\":3774:3778   */\n  dup4\n    /* \"#utility.yul\":3755:3784   */\n  tag_25\n  jump\t// in\ntag_72:\n    /* \"#utility.yul\":3747:3784   */\n  swap2\n  pop\n    /* \"#utility.yul\":3817:3820   */\n  dup3\n    /* \"#utility.yul\":3814:3815   */\n  0x02\n    /* \"#utility.yul\":3810:3821   */\n  mul\n    /* \"#utility.yul\":3804:3808   */\n  dup3\n    /* \"#utility.yul\":3801:3822   */\n  or\n    /* \"#utility.yul\":3793:3822   */\n  swap1\n  pop\n    /* \"#utility.yul\":3533:3828   */\n  swap3\n  swap2\n  pop\n  pop\n  jump\t// out\n    /* \"#utility.yul\":3833:5228   */\ntag_2:\n    /* \"#utility.yul\":3950:3987   */\n  tag_74\n    /* \"#utility.yul\":3983:3986   */\n  dup3\n    /* \"#utility.yul\":3950:3987   */\n  tag_7\n  jump\t// in\ntag_74:\n    /* \"#utility.yul\":4052:4070   */\n  0xffffffffffffffff\n    /* \"#utility.yul\":4044:4050   */\n  dup2\n    /* \"#utility.yul\":4041:4071   */\n  gt\n    /* \"#utility.yul\":4038:4094   */\n  iszero\n  tag_75\n  jumpi\n    /* \"#utility.yul\":4074:4092   */\n  tag_76\n  tag_8\n  jump\t// in\ntag_76:\n    /* \"#utility.yul\":4038:4094   */\ntag_75:\n    /* \"#utility.yul\":4118:4156   */\n  tag_77\n    /* \"#utility.yul\":4150:4154   */\n  dup3\n    /* \"#utility.yul\":4144:4155   */\n  sload\n    /* \"#utility.yul\":4118:4156   */\n  tag_10\n  jump\t// in\ntag_77:\n    /* \"#utility.yul\":4203:4270   */\n  tag_78\n    /* \"#utility.yul\":4263:4269   */\n  dup3\n    /* \"#utility.yul\":4255:4261   */\n  dup3\n    /* \"#utility.yul\":4249:4253   */\n  dup6\n    /* \"#utility.yul\":4203:4270   */\n  tag_23\n  jump\t// in\ntag_78:\n    /* \"#utility.yul\":4297:4298   */\n  0x00\n    /* \"#utility.yul\":4321:4325   */\n  0x20\n    /* \"#utility.yul\":4308:4325   */\n  swap1\n  pop\n    /* \"#utility.yul\":4353:4355   */\n  0x1f\n    /* \"#utility.yul\":4345:4351   */\n  dup4\n    /* \"#utility.yul\":4342:4356   */\n  gt\n    /* \"#utility.yul\":4370:4371   */\n  0x01\n    /* \"#utility.yul\":4365:4983   */\n  dup2\n  eq\n  tag_80\n  jumpi\n    /* \"#utility.yul\":5027:5028   */\n  0x00\n    /* \"#utility.yul\":5044:5050   */\n  dup5\n    /* \"#utility.yul\":5041:5118   */\n  iszero\n  tag_81\n  jumpi\n    /* \"#utility.yul\":5093:5102   */\n  dup3\n    /* \"#utility.yul\":5088:5091   */\n  dup8\n    /* \"#utility.yul\":5084:5103   */\n  add\n    /* \"#utility.yul\":5078:5104   */\n  mload\n    /* \"#utility.yul\":5069:5104   */\n  swap1\n  pop\n    /* \"#utility.yul\":5041:5118   */\ntag_81:\n    /* \"#utility.yul\":5144:5211   */\n  tag_82\n    /* \"#utility.yul\":5204:5210   */\n  dup6\n    /* \"#utility.yul\":5197:5202   */\n  dup3\n    /* \"#utility.yul\":5144:5211   */\n  tag_26\n  jump\t// in\ntag_82:\n    /* \"#utility.yul\":5138:5142   */\n  dup7\n    /* \"#utility.yul\":5131:5212   */\n  sstore\n    /* \"#utility.yul\":5000:5222   */\n  pop\n    /* \"#utility.yul\":4335:5222   */\n  jump(tag_79)\n    /* \"#utility.yul\":4365:4983   */\ntag_80:\n    /* \"#utility.yul\":4417:4421   */\n  0x1f\n    /* \"#utility.yul\":4413:4422   */\n  not\n    /* \"#utility.yul\":4405:4411   */\n  dup5\n    /* \"#utility.yul\":4401:4423   */\n  and\n    /* \"#utility.yul\":4451:4488   */\n  tag_83\n    /* \"#utility.yul\":4483:4487   */\n  dup7\n    /* \"#utility.yul\":4451:4488   */\n  tag_11\n  jump\t// in\ntag_83:\n    /* \"#utility.yul\":4510:4511   */\n  0x00\n    /* \"#utility.yul\":4524:4732   */\ntag_84:\n    /* \"#utility.yul\":4538:4545   */\n  dup3\n    /* \"#utility.yul\":4535:4536   */\n  dup2\n    /* \"#utility.yul\":4532:4546   */\n  lt\n    /* \"#utility.yul\":4524:4732   */\n  iszero\n  tag_86\n  jumpi\n    /* \"#utility.yul\":4617:4626   */\n  dup5\n    /* \"#utility.yul\":4612:4615   */\n  dup10\n    /* \"#utility.yul\":4608:4627   */\n  add\n    /* \"#utility.yul\":4602:4628   */\n  mload\n    /* \"#utility.yul\":4594:4600   */\n  dup3\n    /* \"#utility.yul\":4587:4629   */\n  sstore\n    /* \"#utility.yul\":4668:4669   */\n  0x01\n    /* \"#utility.yul\":4660:4666   */\n  dup3\n    /* \"#utility.yul\":4656:4670   */\n  add\n    /* \"#utility.yul\":4646:4670   */\n  swap2\n  pop\n    /* \"#utility.yul\":4715:4717   */\n  0x20\n    /* \"#utility.yul\":4704:4713   */\n  dup6\n    /* \"#utility.yul\":4700:4718   */\n  add\n    /* \"#utility.yul\":4687:4718   */\n  swap5\n  pop\n    /* \"#utility.yul\":4561:4565   */\n  0x20\n    /* \"#utility.yul\":4558:4559   */\n  dup2\n    /* \"#utility.yul\":4554:4566   */\n  add\n    /* \"#utility.yul\":4549:4566   */\n  swap1\n  pop\n    /* \"#utility.yul\":4524:4732   */\n  jump(tag_84)\ntag_86:\n    /* \"#utility.yul\":4760:4766   */\n  dup7\n    /* \"#utility.yul\":4751:4758   */\n  dup4\n    /* \"#utility.yul\":4748:4767   */\n  lt\n    /* \"#utility.yul\":4745:4924   */\n  iszero\n  tag_87\n  jumpi\n    /* \"#utility.yul\":4818:4827   */\n  dup5\n    /* \"#utility.yul\":4813:4816   */\n  dup10\n    /* \"#utility.yul\":4809:4828   */\n  add\n    /* \"#utility.yul\":4803:4829   */\n  mload\n    /* \"#utility.yul\":4861:4909   */\n  tag_88\n    /* \"#utility.yul\":4903:4907   */\n  0x1f\n    /* \"#utility.yul\":4895:4901   */\n  dup10\n    /* \"#utility.yul\":4891:4908   */\n  and\n    /* \"#utility.yul\":4880:4889   */\n  dup3\n    /* \"#utility.yul\":4861:4909   */\n  tag_25\n  jump\t// in\ntag_88:\n    /* \"#utility.yul\":4853:4859   */\n  dup4\n    /* \"#utility.yul\":4846:4910   */\n  sstore\n    /* \"#utility.yul\":4768:4924   */\n  pop\n    /* \"#utility.yul\":4745:4924   */\ntag_87:\n    /* \"#utility.yul\":4970:4971   */\n  0x01\n    /* \"#utility.yul\":4966:4967   */\n  0x02\n    /* \"#utility.yul\":4958:4964   */\n  dup9\n    /* \"#utility.yul\":4954:4968   */\n  mul\n    /* \"#utility.yul\":4950:4972   */\n  add\n    /* \"#utility.yul\":4944:4948   */\n  dup9\n    /* \"#utility.yul\":4937:4973   */\n  sstore\n    /* \"#utility.yul\":4372:4983   */\n  pop\n  pop\n  pop\n    /* \"#utility.yul\":4335:5222   */\ntag_79:\n  pop\n    /* \"#utility.yul\":3925:5228   */\n  pop\n  pop\n  pop\n    /* \"#utility.yul\":3833:5228   */\n  pop\n  pop\n  jump\t// out\n    /* \"contracts/MyContracts/lec01.sol\":60:1250  contract MyContracts {... */\ntag_6:\n  dataSize(sub_0)\n  dup1\n  dataOffset(sub_0)\n  0x00\n  codecopy\n  0x00\n  return\nstop\n\nsub_0: assembly {\n        /* \"contracts/MyContracts/lec01.sol\":60:1250  contract MyContracts {... */\n      mstore(0x40, 0x80)\n      callvalue\n      dup1\n      iszero\n      tag_1\n      jumpi\n      0x00\n      dup1\n      revert\n    tag_1:\n      pop\n      jumpi(tag_2, lt(calldatasize, 0x04))\n      shr(0xe0, calldataload(0x00))\n      dup1\n      0x9d7e1308\n      gt\n      tag_11\n      jumpi\n      dup1\n      0x9d7e1308\n      eq\n      tag_7\n      jumpi\n      dup1\n      0xa90d89be\n      eq\n      tag_8\n      jumpi\n      dup1\n      0xb3bcfa82\n      eq\n      tag_9\n      jumpi\n      dup1\n      0xd803817a\n      eq\n      tag_10\n      jumpi\n      jump(tag_2)\n    tag_11:\n      dup1\n      0x371303c0\n      eq\n      tag_3\n      jumpi\n      dup1\n      0x4f2be91f\n      eq\n      tag_4\n      jumpi\n      dup1\n      0x6b709e81\n      eq\n      tag_5\n      jumpi\n      dup1\n      0x94caf3af\n      eq\n      tag_6\n      jumpi\n    tag_2:\n      0x00\n      dup1\n      revert\n        /* \"contracts/MyContracts/lec01.sol\":318:384  function inc() public  returns (uint){... */\n    tag_3:\n      tag_12\n      tag_13\n      jump\t// in\n    tag_12:\n      mload(0x40)\n      tag_14\n      swap2\n      swap1\n      tag_15\n      jump\t// in\n    tag_14:\n      mload(0x40)\n      dup1\n      swap2\n      sub\n      swap1\n      return\n        /* \"contracts/MyContracts/lec01.sol\":242:312  function add() public view returns (uint){... */\n    tag_4:\n      tag_16\n      tag_17\n      jump\t// in\n    tag_16:\n      mload(0x40)\n      tag_18\n      swap2\n      swap1\n      tag_15\n      jump\t// in\n    tag_18:\n      mload(0x40)\n      dup1\n      swap2\n      sub\n      swap1\n      return\n        /* \"contracts/MyContracts/lec01.sol\":996:1120  function requireUsingEvenOdd(uint num) public pure returns(uint){... */\n    tag_5:\n      tag_19\n      0x04\n      dup1\n      calldatasize\n      sub\n      dup2\n      add\n      swap1\n      tag_20\n      swap2\n      swap1\n      tag_21\n      jump\t// in\n    tag_20:\n      tag_22\n      jump\t// in\n    tag_19:\n      mload(0x40)\n      tag_23\n      swap2\n      swap1\n      tag_15\n      jump\t// in\n    tag_23:\n      mload(0x40)\n      dup1\n      swap2\n      sub\n      swap1\n      return\n        /* \"contracts/MyContracts/lec01.sol\":692:844  function numCheck() public returns (string memory){... */\n    tag_6:\n      tag_24\n      tag_25\n      jump\t// in\n    tag_24:\n      mload(0x40)\n      tag_26\n      swap2\n      swap1\n      tag_27\n      jump\t// in\n    tag_26:\n      mload(0x40)\n      dup1\n      swap2\n      sub\n      swap1\n      return\n        /* \"contracts/MyContracts/lec01.sol\":848:992  function stringConcatinate(string memory x, string memory y) public pure returns (string memory){... */\n    tag_7:\n      tag_28\n      0x04\n      dup1\n      calldatasize\n      sub\n      dup2\n      add\n      swap1\n      tag_29\n      swap2\n      swap1\n      tag_30\n      jump\t// in\n    tag_29:\n      tag_31\n      jump\t// in\n    tag_28:\n      mload(0x40)\n      tag_32\n      swap2\n      swap1\n      tag_27\n      jump\t// in\n    tag_32:\n      mload(0x40)\n      dup1\n      swap2\n      sub\n      swap1\n      return\n        /* \"contracts/MyContracts/lec01.sol\":466:663  function attendence() public returns(bool){... */\n    tag_8:\n      tag_33\n      tag_34\n      jump\t// in\n    tag_33:\n      mload(0x40)\n      tag_35\n      swap2\n      swap1\n      tag_36\n      jump\t// in\n    tag_35:\n      mload(0x40)\n      dup1\n      swap2\n      sub\n      swap1\n      return\n        /* \"contracts/MyContracts/lec01.sol\":390:460  function dec() public returns (uint){... */\n    tag_9:\n      tag_37\n      tag_38\n      jump\t// in\n    tag_37:\n      mload(0x40)\n      tag_39\n      swap2\n      swap1\n      tag_15\n      jump\t// in\n    tag_39:\n      mload(0x40)\n      dup1\n      swap2\n      sub\n      swap1\n      return\n        /* \"contracts/MyContracts/lec01.sol\":1126:1206  function printSender() public {... */\n    tag_10:\n      tag_40\n      tag_41\n      jump\t// in\n    tag_40:\n      stop\n        /* \"contracts/MyContracts/lec01.sol\":318:384  function inc() public  returns (uint){... */\n    tag_13:\n        /* \"contracts/MyContracts/lec01.sol\":350:354  uint */\n      0x00\n        /* \"contracts/MyContracts/lec01.sol\":375:376  a */\n      0x01\n      0x00\n        /* \"contracts/MyContracts/lec01.sol\":373:376  ++a */\n      dup2\n      sload\n      tag_43\n      swap1\n      tag_44\n      jump\t// in\n    tag_43:\n      swap2\n      swap1\n      pop\n      dup2\n      swap1\n      sstore\n        /* \"contracts/MyContracts/lec01.sol\":366:376  return ++a */\n      swap1\n      pop\n        /* \"contracts/MyContracts/lec01.sol\":318:384  function inc() public  returns (uint){... */\n      swap1\n      jump\t// out\n        /* \"contracts/MyContracts/lec01.sol\":242:312  function add() public view returns (uint){... */\n    tag_17:\n        /* \"contracts/MyContracts/lec01.sol\":278:282  uint */\n      0x00\n        /* \"contracts/MyContracts/lec01.sol\":303:304  b */\n      sload(0x02)\n        /* \"contracts/MyContracts/lec01.sol\":301:302  a */\n      sload(0x01)\n        /* \"contracts/MyContracts/lec01.sol\":301:304  a+b */\n      tag_46\n      swap2\n      swap1\n      tag_47\n      jump\t// in\n    tag_46:\n        /* \"contracts/MyContracts/lec01.sol\":294:304  return a+b */\n      swap1\n      pop\n        /* \"contracts/MyContracts/lec01.sol\":242:312  function add() public view returns (uint){... */\n      swap1\n      jump\t// out\n        /* \"contracts/MyContracts/lec01.sol\":996:1120  function requireUsingEvenOdd(uint num) public pure returns(uint){... */\n    tag_22:\n        /* \"contracts/MyContracts/lec01.sol\":1055:1059  uint */\n      0x00\n        /* \"contracts/MyContracts/lec01.sol\":1082:1083  0 */\n      dup1\n        /* \"contracts/MyContracts/lec01.sol\":1079:1080  2 */\n      0x02\n        /* \"contracts/MyContracts/lec01.sol\":1075:1078  num */\n      dup4\n        /* \"contracts/MyContracts/lec01.sol\":1075:1080  num%2 */\n      tag_49\n      swap2\n      swap1\n      tag_50\n      jump\t// in\n    tag_49:\n        /* \"contracts/MyContracts/lec01.sol\":1075:1083  num%2==0 */\n      eq\n        /* \"contracts/MyContracts/lec01.sol\":1067:1097  require(num%2==0,\"odd Number\") */\n      tag_51\n      jumpi\n      mload(0x40)\n      0x08c379a000000000000000000000000000000000000000000000000000000000\n      dup2\n      mstore\n      0x04\n      add\n      tag_52\n      swap1\n      tag_53\n      jump\t// in\n    tag_52:\n      mload(0x40)\n      dup1\n      swap2\n      sub\n      swap1\n      revert\n    tag_51:\n        /* \"contracts/MyContracts/lec01.sol\":1111:1116  ++num */\n      dup2\n      tag_54\n      swap1\n      tag_44\n      jump\t// in\n    tag_54:\n      swap2\n      pop\n      dup2\n        /* \"contracts/MyContracts/lec01.sol\":1104:1116  return ++num */\n      swap1\n      pop\n        /* \"contracts/MyContracts/lec01.sol\":996:1120  function requireUsingEvenOdd(uint num) public pure returns(uint){... */\n      swap2\n      swap1\n      pop\n      jump\t// out\n        /* \"contracts/MyContracts/lec01.sol\":692:844  function numCheck() public returns (string memory){... */\n    tag_25:\n        /* \"contracts/MyContracts/lec01.sol\":728:741  string memory */\n      0x60\n        /* \"contracts/MyContracts/lec01.sol\":757:758  0 */\n      0x00\n        /* \"contracts/MyContracts/lec01.sol\":754:755  2 */\n      0x02\n        /* \"contracts/MyContracts/lec01.sol\":752:753  a */\n      sload(0x01)\n        /* \"contracts/MyContracts/lec01.sol\":752:755  a%2 */\n      tag_56\n      swap2\n      swap1\n      tag_50\n      jump\t// in\n    tag_56:\n        /* \"contracts/MyContracts/lec01.sol\":752:758  a%2==0 */\n      sub\n        /* \"contracts/MyContracts/lec01.sol\":749:820  if(a%2==0){... */\n      tag_57\n      jumpi\n        /* \"contracts/MyContracts/lec01.sol\":770:780  ans=\"Even\" */\n      mload(0x40)\n      dup1\n      0x40\n      add\n      0x40\n      mstore\n      dup1\n      0x04\n      dup2\n      mstore\n      0x20\n      add\n      0x4576656e00000000000000000000000000000000000000000000000000000000\n      dup2\n      mstore\n      pop\n        /* \"contracts/MyContracts/lec01.sol\":770:773  ans */\n      0x06\n        /* \"contracts/MyContracts/lec01.sol\":770:780  ans=\"Even\" */\n      swap1\n      dup2\n      tag_58\n      swap2\n      swap1\n      tag_59\n      jump\t// in\n    tag_58:\n      pop\n        /* \"contracts/MyContracts/lec01.sol\":749:820  if(a%2==0){... */\n      jump(tag_60)\n    tag_57:\n        /* \"contracts/MyContracts/lec01.sol\":803:812  ans=\"Odd\" */\n      mload(0x40)\n      dup1\n      0x40\n      add\n      0x40\n      mstore\n      dup1\n      0x03\n      dup2\n      mstore\n      0x20\n      add\n      0x4f64640000000000000000000000000000000000000000000000000000000000\n      dup2\n      mstore\n      pop\n        /* \"contracts/MyContracts/lec01.sol\":803:806  ans */\n      0x06\n        /* \"contracts/MyContracts/lec01.sol\":803:812  ans=\"Odd\" */\n      swap1\n      dup2\n      tag_61\n      swap2\n      swap1\n      tag_59\n      jump\t// in\n    tag_61:\n      pop\n        /* \"contracts/MyContracts/lec01.sol\":749:820  if(a%2==0){... */\n    tag_60:\n        /* \"contracts/MyContracts/lec01.sol\":833:836  ans */\n      0x06\n        /* \"contracts/MyContracts/lec01.sol\":826:836  return ans */\n      dup1\n      sload\n      tag_62\n      swap1\n      tag_63\n      jump\t// in\n    tag_62:\n      dup1\n      0x1f\n      add\n      0x20\n      dup1\n      swap2\n      div\n      mul\n      0x20\n      add\n      mload(0x40)\n      swap1\n      dup2\n      add\n      0x40\n      mstore\n      dup1\n      swap3\n      swap2\n      swap1\n      dup2\n      dup2\n      mstore\n      0x20\n      add\n      dup3\n      dup1\n      sload\n      tag_64\n      swap1\n      tag_63\n      jump\t// in\n    tag_64:\n      dup1\n      iszero\n      tag_65\n      jumpi\n      dup1\n      0x1f\n      lt\n      tag_66\n      jumpi\n      0x0100\n      dup1\n      dup4\n      sload\n      div\n      mul\n      dup4\n      mstore\n      swap2\n      0x20\n      add\n      swap2\n      jump(tag_65)\n    tag_66:\n      dup3\n      add\n      swap2\n      swap1\n      0x00\n      mstore\n      keccak256(0x00, 0x20)\n      swap1\n    tag_67:\n      dup2\n      sload\n      dup2\n      mstore\n      swap1\n      0x01\n      add\n      swap1\n      0x20\n      add\n      dup1\n      dup4\n      gt\n      tag_67\n      jumpi\n      dup3\n      swap1\n      sub\n      0x1f\n      and\n      dup3\n      add\n      swap2\n    tag_65:\n      pop\n      pop\n      pop\n      pop\n      pop\n      swap1\n      pop\n        /* \"contracts/MyContracts/lec01.sol\":692:844  function numCheck() public returns (string memory){... */\n      swap1\n      jump\t// out\n        /* \"contracts/MyContracts/lec01.sol\":848:992  function stringConcatinate(string memory x, string memory y) public pure returns (string memory){... */\n    tag_31:\n        /* \"contracts/MyContracts/lec01.sol\":930:943  string memory */\n      0x60\n        /* \"contracts/MyContracts/lec01.sol\":982:983  x */\n      dup3\n        /* \"contracts/MyContracts/lec01.sol\":985:986  y */\n      dup3\n        /* \"contracts/MyContracts/lec01.sol\":965:987  abi.encodePacked(x, y) */\n      add(0x20, mload(0x40))\n      tag_69\n      swap3\n      swap2\n      swap1\n      tag_70\n      jump\t// in\n    tag_69:\n      mload(0x40)\n      0x20\n      dup2\n      dup4\n      sub\n      sub\n      dup2\n      mstore\n      swap1\n      0x40\n      mstore\n        /* \"contracts/MyContracts/lec01.sol\":951:988  return string(abi.encodePacked(x, y)) */\n      swap1\n      pop\n        /* \"contracts/MyContracts/lec01.sol\":848:992  function stringConcatinate(string memory x, string memory y) public pure returns (string memory){... */\n      swap3\n      swap2\n      pop\n      pop\n      jump\t// out\n        /* \"contracts/MyContracts/lec01.sol\":466:663  function attendence() public returns(bool){... */\n    tag_34:\n        /* \"contracts/MyContracts/lec01.sol\":503:507  bool */\n      0x00\n        /* \"contracts/MyContracts/lec01.sol\":533:537  true */\n      0x01\n        /* \"contracts/MyContracts/lec01.sol\":522:537  isPresent==true */\n      iszero\n      iszero\n        /* \"contracts/MyContracts/lec01.sol\":522:531  isPresent */\n      0x03\n      0x00\n      swap1\n      sload\n      swap1\n      0x0100\n      exp\n      swap1\n      div\n      0xff\n      and\n        /* \"contracts/MyContracts/lec01.sol\":522:537  isPresent==true */\n      iszero\n      iszero\n      sub\n        /* \"contracts/MyContracts/lec01.sol\":519:621  if(isPresent==true){... */\n      tag_72\n      jumpi\n        /* \"contracts/MyContracts/lec01.sol\":559:564  false */\n      0x00\n        /* \"contracts/MyContracts/lec01.sol\":549:558  isPresent */\n      0x03\n      0x00\n        /* \"contracts/MyContracts/lec01.sol\":549:564  isPresent=false */\n      0x0100\n      exp\n      dup2\n      sload\n      dup2\n      0xff\n      mul\n      not\n      and\n      swap1\n      dup4\n      iszero\n      iszero\n      mul\n      or\n      swap1\n      sstore\n      pop\n        /* \"contracts/MyContracts/lec01.sol\":519:621  if(isPresent==true){... */\n      jump(tag_73)\n    tag_72:\n        /* \"contracts/MyContracts/lec01.sol\":605:609  true */\n      0x01\n        /* \"contracts/MyContracts/lec01.sol\":595:604  isPresent */\n      0x03\n      0x00\n        /* \"contracts/MyContracts/lec01.sol\":595:609  isPresent=true */\n      0x0100\n      exp\n      dup2\n      sload\n      dup2\n      0xff\n      mul\n      not\n      and\n      swap1\n      dup4\n      iszero\n      iszero\n      mul\n      or\n      swap1\n      sstore\n      pop\n        /* \"contracts/MyContracts/lec01.sol\":519:621  if(isPresent==true){... */\n    tag_73:\n        /* \"contracts/MyContracts/lec01.sol\":642:651  isPresent */\n      0x03\n      0x00\n      swap1\n      sload\n      swap1\n      0x0100\n      exp\n      swap1\n      div\n      0xff\n      and\n        /* \"contracts/MyContracts/lec01.sol\":635:651  return isPresent */\n      swap1\n      pop\n        /* \"contracts/MyContracts/lec01.sol\":466:663  function attendence() public returns(bool){... */\n      swap1\n      jump\t// out\n        /* \"contracts/MyContracts/lec01.sol\":390:460  function dec() public returns (uint){... */\n    tag_38:\n        /* \"contracts/MyContracts/lec01.sol\":421:425  uint */\n      0x00\n        /* \"contracts/MyContracts/lec01.sol\":446:447  a */\n      0x01\n      0x00\n        /* \"contracts/MyContracts/lec01.sol\":444:447  --a */\n      dup2\n      sload\n      tag_75\n      swap1\n      tag_76\n      jump\t// in\n    tag_75:\n      swap2\n      swap1\n      pop\n      dup2\n      swap1\n      sstore\n        /* \"contracts/MyContracts/lec01.sol\":437:447  return --a */\n      swap1\n      pop\n        /* \"contracts/MyContracts/lec01.sol\":390:460  function dec() public returns (uint){... */\n      swap1\n      jump\t// out\n        /* \"contracts/MyContracts/lec01.sol\":1126:1206  function printSender() public {... */\n    tag_41:\n        /* \"contracts/MyContracts/lec01.sol\":1172:1196  SenderLogged(msg.sender) */\n      0x726e7b5cfad8a70a46ba20c9d13b7ca371c916cf7e2ad85fb6fe087899f2ea6a\n        /* \"contracts/MyContracts/lec01.sol\":1185:1195  msg.sender */\n      caller\n        /* \"contracts/MyContracts/lec01.sol\":1172:1196  SenderLogged(msg.sender) */\n      mload(0x40)\n      tag_78\n      swap2\n      swap1\n      tag_79\n      jump\t// in\n    tag_78:\n      mload(0x40)\n      dup1\n      swap2\n      sub\n      swap1\n      log1\n        /* \"contracts/MyContracts/lec01.sol\":1126:1206  function printSender() public {... */\n      jump\t// out\n        /* \"#utility.yul\":7:84   */\n    tag_80:\n        /* \"#utility.yul\":44:51   */\n      0x00\n        /* \"#utility.yul\":73:78   */\n      dup2\n        /* \"#utility.yul\":62:78   */\n      swap1\n      pop\n        /* \"#utility.yul\":7:84   */\n      swap2\n      swap1\n      pop\n      jump\t// out\n        /* \"#utility.yul\":90:208   */\n    tag_81:\n        /* \"#utility.yul\":177:201   */\n      tag_131\n        /* \"#utility.yul\":195:200   */\n      dup2\n        /* \"#utility.yul\":177:201   */\n      tag_80\n      jump\t// in\n    tag_131:\n        /* \"#utility.yul\":172:175   */\n      dup3\n        /* \"#utility.yul\":165:202   */\n      mstore\n        /* \"#utility.yul\":90:208   */\n      pop\n      pop\n      jump\t// out\n        /* \"#utility.yul\":214:436   */\n    tag_15:\n        /* \"#utility.yul\":307:311   */\n      0x00\n        /* \"#utility.yul\":345:347   */\n      0x20\n        /* \"#utility.yul\":334:343   */\n      dup3\n        /* \"#utility.yul\":330:348   */\n      add\n        /* \"#utility.yul\":322:348   */\n      swap1\n      pop\n        /* \"#utility.yul\":358:429   */\n      tag_133\n        /* \"#utility.yul\":426:427   */\n      0x00\n        /* \"#utility.yul\":415:424   */\n      dup4\n        /* \"#utility.yul\":411:428   */\n      add\n        /* \"#utility.yul\":402:408   */\n      dup5\n        /* \"#utility.yul\":358:429   */\n      tag_81\n      jump\t// in\n    tag_133:\n        /* \"#utility.yul\":214:436   */\n      swap3\n      swap2\n      pop\n      pop\n      jump\t// out\n        /* \"#utility.yul\":442:517   */\n    tag_82:\n        /* \"#utility.yul\":475:481   */\n      0x00\n        /* \"#utility.yul\":508:510   */\n      0x40\n        /* \"#utility.yul\":502:511   */\n      mload\n        /* \"#utility.yul\":492:511   */\n      swap1\n      pop\n        /* \"#utility.yul\":442:517   */\n      swap1\n      jump\t// out\n        /* \"#utility.yul\":523:640   */\n    tag_83:\n        /* \"#utility.yul\":632:633   */\n      0x00\n        /* \"#utility.yul\":629:630   */\n      dup1\n        /* \"#utility.yul\":622:634   */\n      revert\n        /* \"#utility.yul\":646:763   */\n    tag_84:\n        /* \"#utility.yul\":755:756   */\n      0x00\n        /* \"#utility.yul\":752:753   */\n      dup1\n        /* \"#utility.yul\":745:757   */\n      revert\n        /* \"#utility.yul\":769:891   */\n    tag_85:\n        /* \"#utility.yul\":842:866   */\n      tag_138\n        /* \"#utility.yul\":860:865   */\n      dup2\n        /* \"#utility.yul\":842:866   */\n      tag_80\n      jump\t// in\n    tag_138:\n        /* \"#utility.yul\":835:840   */\n      dup2\n        /* \"#utility.yul\":832:867   */\n      eq\n        /* \"#utility.yul\":822:885   */\n      tag_139\n      jumpi\n        /* \"#utility.yul\":881:882   */\n      0x00\n        /* \"#utility.yul\":878:879   */\n      dup1\n        /* \"#utility.yul\":871:883   */\n      revert\n        /* \"#utility.yul\":822:885   */\n    tag_139:\n        /* \"#utility.yul\":769:891   */\n      pop\n      jump\t// out\n        /* \"#utility.yul\":897:1036   */\n    tag_86:\n        /* \"#utility.yul\":943:948   */\n      0x00\n        /* \"#utility.yul\":981:987   */\n      dup2\n        /* \"#utility.yul\":968:988   */\n      calldataload\n        /* \"#utility.yul\":959:988   */\n      swap1\n      pop\n        /* \"#utility.yul\":997:1030   */\n      tag_141\n        /* \"#utility.yul\":1024:1029   */\n      dup2\n        /* \"#utility.yul\":997:1030   */\n      tag_85\n      jump\t// in\n    tag_141:\n        /* \"#utility.yul\":897:1036   */\n      swap3\n      swap2\n      pop\n      pop\n      jump\t// out\n        /* \"#utility.yul\":1042:1371   */\n    tag_21:\n        /* \"#utility.yul\":1101:1107   */\n      0x00\n        /* \"#utility.yul\":1150:1152   */\n      0x20\n        /* \"#utility.yul\":1138:1147   */\n      dup3\n        /* \"#utility.yul\":1129:1136   */\n      dup5\n        /* \"#utility.yul\":1125:1148   */\n      sub\n        /* \"#utility.yul\":1121:1153   */\n      slt\n        /* \"#utility.yul\":1118:1237   */\n      iszero\n      tag_143\n      jumpi\n        /* \"#utility.yul\":1156:1235   */\n      tag_144\n      tag_83\n      jump\t// in\n    tag_144:\n        /* \"#utility.yul\":1118:1237   */\n    tag_143:\n        /* \"#utility.yul\":1276:1277   */\n      0x00\n        /* \"#utility.yul\":1301:1354   */\n      tag_145\n        /* \"#utility.yul\":1346:1353   */\n      dup5\n        /* \"#utility.yul\":1337:1343   */\n      dup3\n        /* \"#utility.yul\":1326:1335   */\n      dup6\n        /* \"#utility.yul\":1322:1344   */\n      add\n        /* \"#utility.yul\":1301:1354   */\n      tag_86\n      jump\t// in\n    tag_145:\n        /* \"#utility.yul\":1291:1354   */\n      swap2\n      pop\n        /* \"#utility.yul\":1247:1364   */\n      pop\n        /* \"#utility.yul\":1042:1371   */\n      swap3\n      swap2\n      pop\n      pop\n      jump\t// out\n        /* \"#utility.yul\":1377:1476   */\n    tag_87:\n        /* \"#utility.yul\":1429:1435   */\n      0x00\n        /* \"#utility.yul\":1463:1468   */\n      dup2\n        /* \"#utility.yul\":1457:1469   */\n      mload\n        /* \"#utility.yul\":1447:1469   */\n      swap1\n      pop\n        /* \"#utility.yul\":1377:1476   */\n      swap2\n      swap1\n      pop\n      jump\t// out\n        /* \"#utility.yul\":1482:1651   */\n    tag_88:\n        /* \"#utility.yul\":1566:1577   */\n      0x00\n        /* \"#utility.yul\":1600:1606   */\n      dup3\n        /* \"#utility.yul\":1595:1598   */\n      dup3\n        /* \"#utility.yul\":1588:1607   */\n      mstore\n        /* \"#utility.yul\":1640:1644   */\n      0x20\n        /* \"#utility.yul\":1635:1638   */\n      dup3\n        /* \"#utility.yul\":1631:1645   */\n      add\n        /* \"#utility.yul\":1616:1645   */\n      swap1\n      pop\n        /* \"#utility.yul\":1482:1651   */\n      swap3\n      swap2\n      pop\n      pop\n      jump\t// out\n        /* \"#utility.yul\":1657:1796   */\n    tag_89:\n        /* \"#utility.yul\":1746:1752   */\n      dup3\n        /* \"#utility.yul\":1741:1744   */\n      dup2\n        /* \"#utility.yul\":1736:1739   */\n      dup4\n        /* \"#utility.yul\":1730:1753   */\n      mcopy\n        /* \"#utility.yul\":1787:1788   */\n      0x00\n        /* \"#utility.yul\":1778:1784   */\n      dup4\n        /* \"#utility.yul\":1773:1776   */\n      dup4\n        /* \"#utility.yul\":1769:1785   */\n      add\n        /* \"#utility.yul\":1762:1789   */\n      mstore\n        /* \"#utility.yul\":1657:1796   */\n      pop\n      pop\n      pop\n      jump\t// out\n        /* \"#utility.yul\":1802:1904   */\n    tag_90:\n        /* \"#utility.yul\":1843:1849   */\n      0x00\n        /* \"#utility.yul\":1894:1896   */\n      0x1f\n        /* \"#utility.yul\":1890:1897   */\n      not\n        /* \"#utility.yul\":1885:1887   */\n      0x1f\n        /* \"#utility.yul\":1878:1883   */\n      dup4\n        /* \"#utility.yul\":1874:1888   */\n      add\n        /* \"#utility.yul\":1870:1898   */\n      and\n        /* \"#utility.yul\":1860:1898   */\n      swap1\n      pop\n        /* \"#utility.yul\":1802:1904   */\n      swap2\n      swap1\n      pop\n      jump\t// out\n        /* \"#utility.yul\":1910:2287   */\n    tag_91:\n        /* \"#utility.yul\":1998:2001   */\n      0x00\n        /* \"#utility.yul\":2026:2065   */\n      tag_151\n        /* \"#utility.yul\":2059:2064   */\n      dup3\n        /* \"#utility.yul\":2026:2065   */\n      tag_87\n      jump\t// in\n    tag_151:\n        /* \"#utility.yul\":2081:2152   */\n      tag_152\n        /* \"#utility.yul\":2145:2151   */\n      dup2\n        /* \"#utility.yul\":2140:2143   */\n      dup6\n        /* \"#utility.yul\":2081:2152   */\n      tag_88\n      jump\t// in\n    tag_152:\n        /* \"#utility.yul\":2074:2152   */\n      swap4\n      pop\n        /* \"#utility.yul\":2161:2226   */\n      tag_153\n        /* \"#utility.yul\":2219:2225   */\n      dup2\n        /* \"#utility.yul\":2214:2217   */\n      dup6\n        /* \"#utility.yul\":2207:2211   */\n      0x20\n        /* \"#utility.yul\":2200:2205   */\n      dup7\n        /* \"#utility.yul\":2196:2212   */\n      add\n        /* \"#utility.yul\":2161:2226   */\n      tag_89\n      jump\t// in\n    tag_153:\n        /* \"#utility.yul\":2251:2280   */\n      tag_154\n        /* \"#utility.yul\":2273:2279   */\n      dup2\n        /* \"#utility.yul\":2251:2280   */\n      tag_90\n      jump\t// in\n    tag_154:\n        /* \"#utility.yul\":2246:2249   */\n      dup5\n        /* \"#utility.yul\":2242:2281   */\n      add\n        /* \"#utility.yul\":2235:2281   */\n      swap2\n      pop\n        /* \"#utility.yul\":2002:2287   */\n      pop\n        /* \"#utility.yul\":1910:2287   */\n      swap3\n      swap2\n      pop\n      pop\n      jump\t// out\n        /* \"#utility.yul\":2293:2606   */\n    tag_27:\n        /* \"#utility.yul\":2406:2410   */\n      0x00\n        /* \"#utility.yul\":2444:2446   */\n      0x20\n        /* \"#utility.yul\":2433:2442   */\n      dup3\n        /* \"#utility.yul\":2429:2447   */\n      add\n        /* \"#utility.yul\":2421:2447   */\n      swap1\n      pop\n        /* \"#utility.yul\":2493:2502   */\n      dup2\n        /* \"#utility.yul\":2487:2491   */\n      dup2\n        /* \"#utility.yul\":2483:2503   */\n      sub\n        /* \"#utility.yul\":2479:2480   */\n      0x00\n        /* \"#utility.yul\":2468:2477   */\n      dup4\n        /* \"#utility.yul\":2464:2481   */\n      add\n        /* \"#utility.yul\":2457:2504   */\n      mstore\n        /* \"#utility.yul\":2521:2599   */\n      tag_156\n        /* \"#utility.yul\":2594:2598   */\n      dup2\n        /* \"#utility.yul\":2585:2591   */\n      dup5\n        /* \"#utility.yul\":2521:2599   */\n      tag_91\n      jump\t// in\n    tag_156:\n        /* \"#utility.yul\":2513:2599   */\n      swap1\n      pop\n        /* \"#utility.yul\":2293:2606   */\n      swap3\n      swap2\n      pop\n      pop\n      jump\t// out\n        /* \"#utility.yul\":2612:2729   */\n    tag_92:\n        /* \"#utility.yul\":2721:2722   */\n      0x00\n        /* \"#utility.yul\":2718:2719   */\n      dup1\n        /* \"#utility.yul\":2711:2723   */\n      revert\n        /* \"#utility.yul\":2735:2852   */\n    tag_93:\n        /* \"#utility.yul\":2844:2845   */\n      0x00\n        /* \"#utility.yul\":2841:2842   */\n      dup1\n        /* \"#utility.yul\":2834:2846   */\n      revert\n        /* \"#utility.yul\":2858:3038   */\n    tag_94:\n        /* \"#utility.yul\":2906:2983   */\n      0x4e487b7100000000000000000000000000000000000000000000000000000000\n        /* \"#utility.yul\":2903:2904   */\n      0x00\n        /* \"#utility.yul\":2896:2984   */\n      mstore\n        /* \"#utility.yul\":3003:3007   */\n      0x41\n        /* \"#utility.yul\":3000:3001   */\n      0x04\n        /* \"#utility.yul\":2993:3008   */\n      mstore\n        /* \"#utility.yul\":3027:3031   */\n      0x24\n        /* \"#utility.yul\":3024:3025   */\n      0x00\n        /* \"#utility.yul\":3017:3032   */\n      revert\n        /* \"#utility.yul\":3044:3325   */\n    tag_95:\n        /* \"#utility.yul\":3127:3154   */\n      tag_161\n        /* \"#utility.yul\":3149:3153   */\n      dup3\n        /* \"#utility.yul\":3127:3154   */\n      tag_90\n      jump\t// in\n    tag_161:\n        /* \"#utility.yul\":3119:3125   */\n      dup2\n        /* \"#utility.yul\":3115:3155   */\n      add\n        /* \"#utility.yul\":3257:3263   */\n      dup2\n        /* \"#utility.yul\":3245:3255   */\n      dup2\n        /* \"#utility.yul\":3242:3264   */\n      lt\n        /* \"#utility.yul\":3221:3239   */\n      0xffffffffffffffff\n        /* \"#utility.yul\":3209:3219   */\n      dup3\n        /* \"#utility.yul\":3206:3240   */\n      gt\n        /* \"#utility.yul\":3203:3265   */\n      or\n        /* \"#utility.yul\":3200:3288   */\n      iszero\n      tag_162\n      jumpi\n        /* \"#utility.yul\":3268:3286   */\n      tag_163\n      tag_94\n      jump\t// in\n    tag_163:\n        /* \"#utility.yul\":3200:3288   */\n    tag_162:\n        /* \"#utility.yul\":3308:3318   */\n      dup1\n        /* \"#utility.yul\":3304:3306   */\n      0x40\n        /* \"#utility.yul\":3297:3319   */\n      mstore\n        /* \"#utility.yul\":3087:3325   */\n      pop\n        /* \"#utility.yul\":3044:3325   */\n      pop\n      pop\n      jump\t// out\n        /* \"#utility.yul\":3331:3460   */\n    tag_96:\n        /* \"#utility.yul\":3365:3371   */\n      0x00\n        /* \"#utility.yul\":3392:3412   */\n      tag_165\n      tag_82\n      jump\t// in\n    tag_165:\n        /* \"#utility.yul\":3382:3412   */\n      swap1\n      pop\n        /* \"#utility.yul\":3421:3454   */\n      tag_166\n        /* \"#utility.yul\":3449:3453   */\n      dup3\n        /* \"#utility.yul\":3441:3447   */\n      dup3\n        /* \"#utility.yul\":3421:3454   */\n      tag_95\n      jump\t// in\n    tag_166:\n        /* \"#utility.yul\":3331:3460   */\n      swap2\n      swap1\n      pop\n      jump\t// out\n        /* \"#utility.yul\":3466:3774   */\n    tag_97:\n        /* \"#utility.yul\":3528:3532   */\n      0x00\n        /* \"#utility.yul\":3618:3636   */\n      0xffffffffffffffff\n        /* \"#utility.yul\":3610:3616   */\n      dup3\n        /* \"#utility.yul\":3607:3637   */\n      gt\n        /* \"#utility.yul\":3604:3660   */\n      iszero\n      tag_168\n      jumpi\n        /* \"#utility.yul\":3640:3658   */\n      tag_169\n      tag_94\n      jump\t// in\n    tag_169:\n        /* \"#utility.yul\":3604:3660   */\n    tag_168:\n        /* \"#utility.yul\":3678:3707   */\n      tag_170\n        /* \"#utility.yul\":3700:3706   */\n      dup3\n        /* \"#utility.yul\":3678:3707   */\n      tag_90\n      jump\t// in\n    tag_170:\n        /* \"#utility.yul\":3670:3707   */\n      swap1\n      pop\n        /* \"#utility.yul\":3762:3766   */\n      0x20\n        /* \"#utility.yul\":3756:3760   */\n      dup2\n        /* \"#utility.yul\":3752:3767   */\n      add\n        /* \"#utility.yul\":3744:3767   */\n      swap1\n      pop\n        /* \"#utility.yul\":3466:3774   */\n      swap2\n      swap1\n      pop\n      jump\t// out\n        /* \"#utility.yul\":3780:3928   */\n    tag_98:\n        /* \"#utility.yul\":3878:3884   */\n      dup3\n        /* \"#utility.yul\":3873:3876   */\n      dup2\n        /* \"#utility.yul\":3868:3871   */\n      dup4\n        /* \"#utility.yul\":3855:3885   */\n      calldatacopy\n        /* \"#utility.yul\":3919:3920   */\n      0x00\n        /* \"#utility.yul\":3910:3916   */\n      dup4\n        /* \"#utility.yul\":3905:3908   */\n      dup4\n        /* \"#utility.yul\":3901:3917   */\n      add\n        /* \"#utility.yul\":3894:3921   */\n      mstore\n        /* \"#utility.yul\":3780:3928   */\n      pop\n      pop\n      pop\n      jump\t// out\n        /* \"#utility.yul\":3934:4359   */\n    tag_99:\n        /* \"#utility.yul\":4012:4017   */\n      0x00\n        /* \"#utility.yul\":4037:4103   */\n      tag_173\n        /* \"#utility.yul\":4053:4102   */\n      tag_174\n        /* \"#utility.yul\":4095:4101   */\n      dup5\n        /* \"#utility.yul\":4053:4102   */\n      tag_97\n      jump\t// in\n    tag_174:\n        /* \"#utility.yul\":4037:4103   */\n      tag_96\n      jump\t// in\n    tag_173:\n        /* \"#utility.yul\":4028:4103   */\n      swap1\n      pop\n        /* \"#utility.yul\":4126:4132   */\n      dup3\n        /* \"#utility.yul\":4119:4124   */\n      dup2\n        /* \"#utility.yul\":4112:4133   */\n      mstore\n        /* \"#utility.yul\":4164:4168   */\n      0x20\n        /* \"#utility.yul\":4157:4162   */\n      dup2\n        /* \"#utility.yul\":4153:4169   */\n      add\n        /* \"#utility.yul\":4202:4205   */\n      dup5\n        /* \"#utility.yul\":4193:4199   */\n      dup5\n        /* \"#utility.yul\":4188:4191   */\n      dup5\n        /* \"#utility.yul\":4184:4200   */\n      add\n        /* \"#utility.yul\":4181:4206   */\n      gt\n        /* \"#utility.yul\":4178:4290   */\n      iszero\n      tag_175\n      jumpi\n        /* \"#utility.yul\":4209:4288   */\n      tag_176\n      tag_93\n      jump\t// in\n    tag_176:\n        /* \"#utility.yul\":4178:4290   */\n    tag_175:\n        /* \"#utility.yul\":4299:4353   */\n      tag_177\n        /* \"#utility.yul\":4346:4352   */\n      dup5\n        /* \"#utility.yul\":4341:4344   */\n      dup3\n        /* \"#utility.yul\":4336:4339   */\n      dup6\n        /* \"#utility.yul\":4299:4353   */\n      tag_98\n      jump\t// in\n    tag_177:\n        /* \"#utility.yul\":4018:4359   */\n      pop\n        /* \"#utility.yul\":3934:4359   */\n      swap4\n      swap3\n      pop\n      pop\n      pop\n      jump\t// out\n        /* \"#utility.yul\":4379:4719   */\n    tag_100:\n        /* \"#utility.yul\":4435:4440   */\n      0x00\n        /* \"#utility.yul\":4484:4487   */\n      dup3\n        /* \"#utility.yul\":4477:4481   */\n      0x1f\n        /* \"#utility.yul\":4469:4475   */\n      dup4\n        /* \"#utility.yul\":4465:4482   */\n      add\n        /* \"#utility.yul\":4461:4488   */\n      slt\n        /* \"#utility.yul\":4451:4573   */\n      tag_179\n      jumpi\n        /* \"#utility.yul\":4492:4571   */\n      tag_180\n      tag_92\n      jump\t// in\n    tag_180:\n        /* \"#utility.yul\":4451:4573   */\n    tag_179:\n        /* \"#utility.yul\":4609:4615   */\n      dup2\n        /* \"#utility.yul\":4596:4616   */\n      calldataload\n        /* \"#utility.yul\":4634:4713   */\n      tag_181\n        /* \"#utility.yul\":4709:4712   */\n      dup5\n        /* \"#utility.yul\":4701:4707   */\n      dup3\n        /* \"#utility.yul\":4694:4698   */\n      0x20\n        /* \"#utility.yul\":4686:4692   */\n      dup7\n        /* \"#utility.yul\":4682:4699   */\n      add\n        /* \"#utility.yul\":4634:4713   */\n      tag_99\n      jump\t// in\n    tag_181:\n        /* \"#utility.yul\":4625:4713   */\n      swap2\n      pop\n        /* \"#utility.yul\":4441:4719   */\n      pop\n        /* \"#utility.yul\":4379:4719   */\n      swap3\n      swap2\n      pop\n      pop\n      jump\t// out\n        /* \"#utility.yul\":4725:5559   */\n    tag_30:\n        /* \"#utility.yul\":4813:4819   */\n      0x00\n        /* \"#utility.yul\":4821:4827   */\n      dup1\n        /* \"#utility.yul\":4870:4872   */\n      0x40\n        /* \"#utility.yul\":4858:4867   */\n      dup4\n        /* \"#utility.yul\":4849:4856   */\n      dup6\n        /* \"#utility.yul\":4845:4868   */\n      sub\n        /* \"#utility.yul\":4841:4873   */\n      slt\n        /* \"#utility.yul\":4838:4957   */\n      iszero\n      tag_183\n      jumpi\n        /* \"#utility.yul\":4876:4955   */\n      tag_184\n      tag_83\n      jump\t// in\n    tag_184:\n        /* \"#utility.yul\":4838:4957   */\n    tag_183:\n        /* \"#utility.yul\":5024:5025   */\n      0x00\n        /* \"#utility.yul\":5013:5022   */\n      dup4\n        /* \"#utility.yul\":5009:5026   */\n      add\n        /* \"#utility.yul\":4996:5027   */\n      calldataload\n        /* \"#utility.yul\":5054:5072   */\n      0xffffffffffffffff\n        /* \"#utility.yul\":5046:5052   */\n      dup2\n        /* \"#utility.yul\":5043:5073   */\n      gt\n        /* \"#utility.yul\":5040:5157   */\n      iszero\n      tag_185\n      jumpi\n        /* \"#utility.yul\":5076:5155   */\n      tag_186\n      tag_84\n      jump\t// in\n    tag_186:\n        /* \"#utility.yul\":5040:5157   */\n    tag_185:\n        /* \"#utility.yul\":5181:5244   */\n      tag_187\n        /* \"#utility.yul\":5236:5243   */\n      dup6\n        /* \"#utility.yul\":5227:5233   */\n      dup3\n        /* \"#utility.yul\":5216:5225   */\n      dup7\n        /* \"#utility.yul\":5212:5234   */\n      add\n        /* \"#utility.yul\":5181:5244   */\n      tag_100\n      jump\t// in\n    tag_187:\n        /* \"#utility.yul\":5171:5244   */\n      swap3\n      pop\n        /* \"#utility.yul\":4967:5254   */\n      pop\n        /* \"#utility.yul\":5321:5323   */\n      0x20\n        /* \"#utility.yul\":5310:5319   */\n      dup4\n        /* \"#utility.yul\":5306:5324   */\n      add\n        /* \"#utility.yul\":5293:5325   */\n      calldataload\n        /* \"#utility.yul\":5352:5370   */\n      0xffffffffffffffff\n        /* \"#utility.yul\":5344:5350   */\n      dup2\n        /* \"#utility.yul\":5341:5371   */\n      gt\n        /* \"#utility.yul\":5338:5455   */\n      iszero\n      tag_188\n      jumpi\n        /* \"#utility.yul\":5374:5453   */\n      tag_189\n      tag_84\n      jump\t// in\n    tag_189:\n        /* \"#utility.yul\":5338:5455   */\n    tag_188:\n        /* \"#utility.yul\":5479:5542   */\n      tag_190\n        /* \"#utility.yul\":5534:5541   */\n      dup6\n        /* \"#utility.yul\":5525:5531   */\n      dup3\n        /* \"#utility.yul\":5514:5523   */\n      dup7\n        /* \"#utility.yul\":5510:5532   */\n      add\n        /* \"#utility.yul\":5479:5542   */\n      tag_100\n      jump\t// in\n    tag_190:\n        /* \"#utility.yul\":5469:5542   */\n      swap2\n      pop\n        /* \"#utility.yul\":5264:5552   */\n      pop\n        /* \"#utility.yul\":4725:5559   */\n      swap3\n      pop\n      swap3\n      swap1\n      pop\n      jump\t// out\n        /* \"#utility.yul\":5565:5655   */\n    tag_101:\n        /* \"#utility.yul\":5599:5606   */\n      0x00\n        /* \"#utility.yul\":5642:5647   */\n      dup2\n        /* \"#utility.yul\":5635:5648   */\n      iszero\n        /* \"#utility.yul\":5628:5649   */\n      iszero\n        /* \"#utility.yul\":5617:5649   */\n      swap1\n      pop\n        /* \"#utility.yul\":5565:5655   */\n      swap2\n      swap1\n      pop\n      jump\t// out\n        /* \"#utility.yul\":5661:5770   */\n    tag_102:\n        /* \"#utility.yul\":5742:5763   */\n      tag_193\n        /* \"#utility.yul\":5757:5762   */\n      dup2\n        /* \"#utility.yul\":5742:5763   */\n      tag_101\n      jump\t// in\n    tag_193:\n        /* \"#utility.yul\":5737:5740   */\n      dup3\n        /* \"#utility.yul\":5730:5764   */\n      mstore\n        /* \"#utility.yul\":5661:5770   */\n      pop\n      pop\n      jump\t// out\n        /* \"#utility.yul\":5776:5986   */\n    tag_36:\n        /* \"#utility.yul\":5863:5867   */\n      0x00\n        /* \"#utility.yul\":5901:5903   */\n      0x20\n        /* \"#utility.yul\":5890:5899   */\n      dup3\n        /* \"#utility.yul\":5886:5904   */\n      add\n        /* \"#utility.yul\":5878:5904   */\n      swap1\n      pop\n        /* \"#utility.yul\":5914:5979   */\n      tag_195\n        /* \"#utility.yul\":5976:5977   */\n      0x00\n        /* \"#utility.yul\":5965:5974   */\n      dup4\n        /* \"#utility.yul\":5961:5978   */\n      add\n        /* \"#utility.yul\":5952:5958   */\n      dup5\n        /* \"#utility.yul\":5914:5979   */\n      tag_102\n      jump\t// in\n    tag_195:\n        /* \"#utility.yul\":5776:5986   */\n      swap3\n      swap2\n      pop\n      pop\n      jump\t// out\n        /* \"#utility.yul\":5992:6172   */\n    tag_103:\n        /* \"#utility.yul\":6040:6117   */\n      0x4e487b7100000000000000000000000000000000000000000000000000000000\n        /* \"#utility.yul\":6037:6038   */\n      0x00\n        /* \"#utility.yul\":6030:6118   */\n      mstore\n        /* \"#utility.yul\":6137:6141   */\n      0x11\n        /* \"#utility.yul\":6134:6135   */\n      0x04\n        /* \"#utility.yul\":6127:6142   */\n      mstore\n        /* \"#utility.yul\":6161:6165   */\n      0x24\n        /* \"#utility.yul\":6158:6159   */\n      0x00\n        /* \"#utility.yul\":6151:6166   */\n      revert\n        /* \"#utility.yul\":6178:6411   */\n    tag_44:\n        /* \"#utility.yul\":6217:6220   */\n      0x00\n        /* \"#utility.yul\":6240:6264   */\n      tag_198\n        /* \"#utility.yul\":6258:6263   */\n      dup3\n        /* \"#utility.yul\":6240:6264   */\n      tag_80\n      jump\t// in\n    tag_198:\n        /* \"#utility.yul\":6231:6264   */\n      swap2\n      pop\n        /* \"#utility.yul\":6286:6352   */\n      0xffffffffffffffffffffffffffffffffffffffffffffffffffffffffffffffff\n        /* \"#utility.yul\":6279:6284   */\n      dup3\n        /* \"#utility.yul\":6276:6353   */\n      sub\n        /* \"#utility.yul\":6273:6376   */\n      tag_199\n      jumpi\n        /* \"#utility.yul\":6356:6374   */\n      tag_200\n      tag_103\n      jump\t// in\n    tag_200:\n        /* \"#utility.yul\":6273:6376   */\n    tag_199:\n        /* \"#utility.yul\":6403:6404   */\n      0x01\n        /* \"#utility.yul\":6396:6401   */\n      dup3\n        /* \"#utility.yul\":6392:6405   */\n      add\n        /* \"#utility.yul\":6385:6405   */\n      swap1\n      pop\n        /* \"#utility.yul\":6178:6411   */\n      swap2\n      swap1\n      pop\n      jump\t// out\n        /* \"#utility.yul\":6417:6608   */\n    tag_47:\n        /* \"#utility.yul\":6457:6460   */\n      0x00\n        /* \"#utility.yul\":6476:6496   */\n      tag_202\n        /* \"#utility.yul\":6494:6495   */\n      dup3\n        /* \"#utility.yul\":6476:6496   */\n      tag_80\n      jump\t// in\n    tag_202:\n        /* \"#utility.yul\":6471:6496   */\n      swap2\n      pop\n        /* \"#utility.yul\":6510:6530   */\n      tag_203\n        /* \"#utility.yul\":6528:6529   */\n      dup4\n        /* \"#utility.yul\":6510:6530   */\n      tag_80\n      jump\t// in\n    tag_203:\n        /* \"#utility.yul\":6505:6530   */\n      swap3\n      pop\n        /* \"#utility.yul\":6553:6554   */\n      dup3\n        /* \"#utility.yul\":6550:6551   */\n      dup3\n        /* \"#utility.yul\":6546:6555   */\n      add\n        /* \"#utility.yul\":6539:6555   */\n      swap1\n      pop\n        /* \"#utility.yul\":6574:6577   */\n      dup1\n        /* \"#utility.yul\":6571:6572   */\n      dup3\n        /* \"#utility.yul\":6568:6578   */\n      gt\n        /* \"#utility.yul\":6565:6601   */\n      iszero\n      tag_204\n      jumpi\n        /* \"#utility.yul\":6581:6599   */\n      tag_205\n      tag_103\n      jump\t// in\n    tag_205:\n        /* \"#utility.yul\":6565:6601   */\n    tag_204:\n        /* \"#utility.yul\":6417:6608   */\n      swap3\n      swap2\n      pop\n      pop\n      jump\t// out\n        /* \"#utility.yul\":6614:6794   */\n    tag_104:\n        /* \"#utility.yul\":6662:6739   */\n      0x4e487b7100000000000000000000000000000000000000000000000000000000\n        /* \"#utility.yul\":6659:6660   */\n      0x00\n        /* \"#utility.yul\":6652:6740   */\n      mstore\n        /* \"#utility.yul\":6759:6763   */\n      0x12\n        /* \"#utility.yul\":6756:6757   */\n      0x04\n        /* \"#utility.yul\":6749:6764   */\n      mstore\n        /* \"#utility.yul\":6783:6787   */\n      0x24\n        /* \"#utility.yul\":6780:6781   */\n      0x00\n        /* \"#utility.yul\":6773:6788   */\n      revert\n        /* \"#utility.yul\":6800:6976   */\n    tag_50:\n        /* \"#utility.yul\":6832:6833   */\n      0x00\n        /* \"#utility.yul\":6849:6869   */\n      tag_208\n        /* \"#utility.yul\":6867:6868   */\n      dup3\n        /* \"#utility.yul\":6849:6869   */\n      tag_80\n      jump\t// in\n    tag_208:\n        /* \"#utility.yul\":6844:6869   */\n      swap2\n      pop\n        /* \"#utility.yul\":6883:6903   */\n      tag_209\n        /* \"#utility.yul\":6901:6902   */\n      dup4\n        /* \"#utility.yul\":6883:6903   */\n      tag_80\n      jump\t// in\n    tag_209:\n        /* \"#utility.yul\":6878:6903   */\n      swap3\n      pop\n        /* \"#utility.yul\":6922:6923   */\n      dup3\n        /* \"#utility.yul\":6912:6947   */\n      tag_210\n      jumpi\n        /* \"#utility.yul\":6927:6945   */\n      tag_211\n      tag_104\n      jump\t// in\n    tag_211:\n        /* \"#utility.yul\":6912:6947   */\n    tag_210:\n        /* \"#utility.yul\":6968:6969   */\n      dup3\n        /* \"#utility.yul\":6965:6966   */\n      dup3\n        /* \"#utility.yul\":6961:6970   */\n      mod\n        /* \"#utility.yul\":6956:6970   */\n      swap1\n      pop\n        /* \"#utility.yul\":6800:6976   */\n      swap3\n      swap2\n      pop\n      pop\n      jump\t// out\n        /* \"#utility.yul\":6982:7142   */\n    tag_105:\n        /* \"#utility.yul\":7122:7134   */\n      0x6f6464204e756d62657200000000000000000000000000000000000000000000\n        /* \"#utility.yul\":7118:7119   */\n      0x00\n        /* \"#utility.yul\":7110:7116   */\n      dup3\n        /* \"#utility.yul\":7106:7120   */\n      add\n        /* \"#utility.yul\":7099:7135   */\n      mstore\n        /* \"#utility.yul\":6982:7142   */\n      pop\n      jump\t// out\n        /* \"#utility.yul\":7148:7514   */\n    tag_106:\n        /* \"#utility.yul\":7290:7293   */\n      0x00\n        /* \"#utility.yul\":7311:7378   */\n      tag_214\n        /* \"#utility.yul\":7375:7377   */\n      0x0a\n        /* \"#utility.yul\":7370:7373   */\n      dup4\n        /* \"#utility.yul\":7311:7378   */\n      tag_88\n      jump\t// in\n    tag_214:\n        /* \"#utility.yul\":7304:7378   */\n      swap2\n      pop\n        /* \"#utility.yul\":7387:7480   */\n      tag_215\n        /* \"#utility.yul\":7476:7479   */\n      dup3\n        /* \"#utility.yul\":7387:7480   */\n      tag_105\n      jump\t// in\n    tag_215:\n        /* \"#utility.yul\":7505:7507   */\n      0x20\n        /* \"#utility.yul\":7500:7503   */\n      dup3\n        /* \"#utility.yul\":7496:7508   */\n      add\n        /* \"#utility.yul\":7489:7508   */\n      swap1\n      pop\n        /* \"#utility.yul\":7148:7514   */\n      swap2\n      swap1\n      pop\n      jump\t// out\n        /* \"#utility.yul\":7520:7939   */\n    tag_53:\n        /* \"#utility.yul\":7686:7690   */\n      0x00\n        /* \"#utility.yul\":7724:7726   */\n      0x20\n        /* \"#utility.yul\":7713:7722   */\n      dup3\n        /* \"#utility.yul\":7709:7727   */\n      add\n        /* \"#utility.yul\":7701:7727   */\n      swap1\n      pop\n        /* \"#utility.yul\":7773:7782   */\n      dup2\n        /* \"#utility.yul\":7767:7771   */\n      dup2\n        /* \"#utility.yul\":7763:7783   */\n      sub\n        /* \"#utility.yul\":7759:7760   */\n      0x00\n        /* \"#utility.yul\":7748:7757   */\n      dup4\n        /* \"#utility.yul\":7744:7761   */\n      add\n        /* \"#utility.yul\":7737:7784   */\n      mstore\n        /* \"#utility.yul\":7801:7932   */\n      tag_217\n        /* \"#utility.yul\":7927:7931   */\n      dup2\n        /* \"#utility.yul\":7801:7932   */\n      tag_106\n      jump\t// in\n    tag_217:\n        /* \"#utility.yul\":7793:7932   */\n      swap1\n      pop\n        /* \"#utility.yul\":7520:7939   */\n      swap2\n      swap1\n      pop\n      jump\t// out\n        /* \"#utility.yul\":7945:8125   */\n    tag_107:\n        /* \"#utility.yul\":7993:8070   */\n      0x4e487b7100000000000000000000000000000000000000000000000000000000\n        /* \"#utility.yul\":7990:7991   */\n      0x00\n        /* \"#utility.yul\":7983:8071   */\n      mstore\n        /* \"#utility.yul\":8090:8094   */\n      0x22\n        /* \"#utility.yul\":8087:8088   */\n      0x04\n        /* \"#utility.yul\":8080:8095   */\n      mstore\n        /* \"#utility.yul\":8114:8118   */\n      0x24\n        /* \"#utility.yul\":8111:8112   */\n      0x00\n        /* \"#utility.yul\":8104:8119   */\n      revert\n        /* \"#utility.yul\":8131:8451   */\n    tag_63:\n        /* \"#utility.yul\":8175:8181   */\n      0x00\n        /* \"#utility.yul\":8212:8213   */\n      0x02\n        /* \"#utility.yul\":8206:8210   */\n      dup3\n        /* \"#utility.yul\":8202:8214   */\n      div\n        /* \"#utility.yul\":8192:8214   */\n      swap1\n      pop\n        /* \"#utility.yul\":8259:8260   */\n      0x01\n        /* \"#utility.yul\":8253:8257   */\n      dup3\n        /* \"#utility.yul\":8249:8261   */\n      and\n        /* \"#utility.yul\":8280:8298   */\n      dup1\n        /* \"#utility.yul\":8270:8351   */\n      tag_220\n      jumpi\n        /* \"#utility.yul\":8336:8340   */\n      0x7f\n        /* \"#utility.yul\":8328:8334   */\n      dup3\n        /* \"#utility.yul\":8324:8341   */\n      and\n        /* \"#utility.yul\":8314:8341   */\n      swap2\n      pop\n        /* \"#utility.yul\":8270:8351   */\n    tag_220:\n        /* \"#utility.yul\":8398:8400   */\n      0x20\n        /* \"#utility.yul\":8390:8396   */\n      dup3\n        /* \"#utility.yul\":8387:8401   */\n      lt\n        /* \"#utility.yul\":8367:8385   */\n      dup2\n        /* \"#utility.yul\":8364:8402   */\n      sub\n        /* \"#utility.yul\":8361:8445   */\n      tag_221\n      jumpi\n        /* \"#utility.yul\":8417:8435   */\n      tag_222\n      tag_107\n      jump\t// in\n    tag_222:\n        /* \"#utility.yul\":8361:8445   */\n    tag_221:\n        /* \"#utility.yul\":8182:8451   */\n      pop\n        /* \"#utility.yul\":8131:8451   */\n      swap2\n      swap1\n      pop\n      jump\t// out\n        /* \"#utility.yul\":8457:8598   */\n    tag_108:\n        /* \"#utility.yul\":8506:8510   */\n      0x00\n        /* \"#utility.yul\":8529:8532   */\n      dup2\n        /* \"#utility.yul\":8521:8532   */\n      swap1\n      pop\n        /* \"#utility.yul\":8552:8555   */\n      dup2\n        /* \"#utility.yul\":8549:8550   */\n      0x00\n        /* \"#utility.yul\":8542:8556   */\n      mstore\n        /* \"#utility.yul\":8586:8590   */\n      0x20\n        /* \"#utility.yul\":8583:8584   */\n      0x00\n        /* \"#utility.yul\":8573:8591   */\n      keccak256\n        /* \"#utility.yul\":8565:8591   */\n      swap1\n      pop\n        /* \"#utility.yul\":8457:8598   */\n      swap2\n      swap1\n      pop\n      jump\t// out\n        /* \"#utility.yul\":8604:8697   */\n    tag_109:\n        /* \"#utility.yul\":8641:8647   */\n      0x00\n        /* \"#utility.yul\":8688:8690   */\n      0x20\n        /* \"#utility.yul\":8683:8685   */\n      0x1f\n        /* \"#utility.yul\":8676:8681   */\n      dup4\n        /* \"#utility.yul\":8672:8686   */\n      add\n        /* \"#utility.yul\":8668:8691   */\n      div\n        /* \"#utility.yul\":8658:8691   */\n      swap1\n      pop\n        /* \"#utility.yul\":8604:8697   */\n      swap2\n      swap1\n      pop\n      jump\t// out\n        /* \"#utility.yul\":8703:8810   */\n    tag_110:\n        /* \"#utility.yul\":8747:8755   */\n      0x00\n        /* \"#utility.yul\":8797:8802   */\n      dup3\n        /* \"#utility.yul\":8791:8795   */\n      dup3\n        /* \"#utility.yul\":8787:8803   */\n      shl\n        /* \"#utility.yul\":8766:8803   */\n      swap1\n      pop\n        /* \"#utility.yul\":8703:8810   */\n      swap3\n      swap2\n      pop\n      pop\n      jump\t// out\n        /* \"#utility.yul\":8816:9209   */\n    tag_111:\n        /* \"#utility.yul\":8885:8891   */\n      0x00\n        /* \"#utility.yul\":8935:8936   */\n      0x08\n        /* \"#utility.yul\":8923:8933   */\n      dup4\n        /* \"#utility.yul\":8919:8937   */\n      mul\n        /* \"#utility.yul\":8958:9055   */\n      tag_227\n        /* \"#utility.yul\":8988:9054   */\n      0xffffffffffffffffffffffffffffffffffffffffffffffffffffffffffffffff\n        /* \"#utility.yul\":8977:8986   */\n      dup3\n        /* \"#utility.yul\":8958:9055   */\n      tag_110\n      jump\t// in\n    tag_227:\n        /* \"#utility.yul\":9076:9115   */\n      tag_228\n        /* \"#utility.yul\":9106:9114   */\n      dup7\n        /* \"#utility.yul\":9095:9104   */\n      dup4\n        /* \"#utility.yul\":9076:9115   */\n      tag_110\n      jump\t// in\n    tag_228:\n        /* \"#utility.yul\":9064:9115   */\n      swap6\n      pop\n        /* \"#utility.yul\":9148:9152   */\n      dup1\n        /* \"#utility.yul\":9144:9153   */\n      not\n        /* \"#utility.yul\":9137:9142   */\n      dup5\n        /* \"#utility.yul\":9133:9154   */\n      and\n        /* \"#utility.yul\":9124:9154   */\n      swap4\n      pop\n        /* \"#utility.yul\":9197:9201   */\n      dup1\n        /* \"#utility.yul\":9187:9195   */\n      dup7\n        /* \"#utility.yul\":9183:9202   */\n      and\n        /* \"#utility.yul\":9176:9181   */\n      dup5\n        /* \"#utility.yul\":9173:9203   */\n      or\n        /* \"#utility.yul\":9163:9203   */\n      swap3\n      pop\n        /* \"#utility.yul\":8892:9209   */\n      pop\n      pop\n        /* \"#utility.yul\":8816:9209   */\n      swap4\n      swap3\n      pop\n      pop\n      pop\n      jump\t// out\n        /* \"#utility.yul\":9215:9275   */\n    tag_112:\n        /* \"#utility.yul\":9243:9246   */\n      0x00\n        /* \"#utility.yul\":9264:9269   */\n      dup2\n        /* \"#utility.yul\":9257:9269   */\n      swap1\n      pop\n        /* \"#utility.yul\":9215:9275   */\n      swap2\n      swap1\n      pop\n      jump\t// out\n        /* \"#utility.yul\":9281:9423   */\n    tag_113:\n        /* \"#utility.yul\":9331:9340   */\n      0x00\n        /* \"#utility.yul\":9364:9417   */\n      tag_231\n        /* \"#utility.yul\":9382:9416   */\n      tag_232\n        /* \"#utility.yul\":9391:9415   */\n      tag_233\n        /* \"#utility.yul\":9409:9414   */\n      dup5\n        /* \"#utility.yul\":9391:9415   */\n      tag_80\n      jump\t// in\n    tag_233:\n        /* \"#utility.yul\":9382:9416   */\n      tag_112\n      jump\t// in\n    tag_232:\n        /* \"#utility.yul\":9364:9417   */\n      tag_80\n      jump\t// in\n    tag_231:\n        /* \"#utility.yul\":9351:9417   */\n      swap1\n      pop\n        /* \"#utility.yul\":9281:9423   */\n      swap2\n      swap1\n      pop\n      jump\t// out\n        /* \"#utility.yul\":9429:9504   */\n    tag_114:\n        /* \"#utility.yul\":9472:9475   */\n      0x00\n        /* \"#utility.yul\":9493:9498   */\n      dup2\n        /* \"#utility.yul\":9486:9498   */\n      swap1\n      pop\n        /* \"#utility.yul\":9429:9504   */\n      swap2\n      swap1\n      pop\n      jump\t// out\n        /* \"#utility.yul\":9510:9779   */\n    tag_115:\n        /* \"#utility.yul\":9620:9659   */\n      tag_236\n        /* \"#utility.yul\":9651:9658   */\n      dup4\n        /* \"#utility.yul\":9620:9659   */\n      tag_113\n      jump\t// in\n    tag_236:\n        /* \"#utility.yul\":9681:9772   */\n      tag_237\n        /* \"#utility.yul\":9730:9771   */\n      tag_238\n        /* \"#utility.yul\":9754:9770   */\n      dup3\n        /* \"#utility.yul\":9730:9771   */\n      tag_114\n      jump\t// in\n    tag_238:\n        /* \"#utility.yul\":9722:9728   */\n      dup5\n        /* \"#utility.yul\":9715:9719   */\n      dup5\n        /* \"#utility.yul\":9709:9720   */\n      sload\n        /* \"#utility.yul\":9681:9772   */\n      tag_111\n      jump\t// in\n    tag_237:\n        /* \"#utility.yul\":9675:9679   */\n      dup3\n        /* \"#utility.yul\":9668:9773   */\n      sstore\n        /* \"#utility.yul\":9586:9779   */\n      pop\n        /* \"#utility.yul\":9510:9779   */\n      pop\n      pop\n      pop\n      jump\t// out\n        /* \"#utility.yul\":9785:9858   */\n    tag_116:\n        /* \"#utility.yul\":9830:9833   */\n      0x00\n        /* \"#utility.yul\":9785:9858   */\n      swap1\n      jump\t// out\n        /* \"#utility.yul\":9864:10053   */\n    tag_117:\n        /* \"#utility.yul\":9941:9973   */\n      tag_241\n      tag_116\n      jump\t// in\n    tag_241:\n        /* \"#utility.yul\":9982:10047   */\n      tag_242\n        /* \"#utility.yul\":10040:10046   */\n      dup2\n        /* \"#utility.yul\":10032:10038   */\n      dup5\n        /* \"#utility.yul\":10026:10030   */\n      dup5\n        /* \"#utility.yul\":9982:10047   */\n      tag_115\n      jump\t// in\n    tag_242:\n        /* \"#utility.yul\":9917:10053   */\n      pop\n        /* \"#utility.yul\":9864:10053   */\n      pop\n      pop\n      jump\t// out\n        /* \"#utility.yul\":10059:10245   */\n    tag_118:\n        /* \"#utility.yul\":10119:10239   */\n    tag_244:\n        /* \"#utility.yul\":10136:10139   */\n      dup2\n        /* \"#utility.yul\":10129:10134   */\n      dup2\n        /* \"#utility.yul\":10126:10140   */\n      lt\n        /* \"#utility.yul\":10119:10239   */\n      iszero\n      tag_246\n      jumpi\n        /* \"#utility.yul\":10190:10229   */\n      tag_247\n        /* \"#utility.yul\":10227:10228   */\n      0x00\n        /* \"#utility.yul\":10220:10225   */\n      dup3\n        /* \"#utility.yul\":10190:10229   */\n      tag_117\n      jump\t// in\n    tag_247:\n        /* \"#utility.yul\":10163:10164   */\n      0x01\n        /* \"#utility.yul\":10156:10161   */\n      dup2\n        /* \"#utility.yul\":10152:10165   */\n      add\n        /* \"#utility.yul\":10143:10165   */\n      swap1\n      pop\n        /* \"#utility.yul\":10119:10239   */\n      jump(tag_244)\n    tag_246:\n        /* \"#utility.yul\":10059:10245   */\n      pop\n      pop\n      jump\t// out\n        /* \"#utility.yul\":10251:10794   */\n    tag_119:\n        /* \"#utility.yul\":10352:10354   */\n      0x1f\n        /* \"#utility.yul\":10347:10350   */\n      dup3\n        /* \"#utility.yul\":10344:10355   */\n      gt\n        /* \"#utility.yul\":10341:10787   */\n      iszero\n      tag_249\n      jumpi\n        /* \"#utility.yul\":10386:10424   */\n      tag_250\n        /* \"#utility.yul\":10418:10423   */\n      dup2\n        /* \"#utility.yul\":10386:10424   */\n      tag_108\n      jump\t// in\n    tag_250:\n        /* \"#utility.yul\":10470:10499   */\n      tag_251\n        /* \"#utility.yul\":10488:10498   */\n      dup5\n        /* \"#utility.yul\":10470:10499   */\n      tag_109\n      jump\t// in\n    tag_251:\n        /* \"#utility.yul\":10460:10468   */\n      dup2\n        /* \"#utility.yul\":10456:10500   */\n      add\n        /* \"#utility.yul\":10653:10655   */\n      0x20\n        /* \"#utility.yul\":10641:10651   */\n      dup6\n        /* \"#utility.yul\":10638:10656   */\n      lt\n        /* \"#utility.yul\":10635:10684   */\n      iszero\n      tag_252\n      jumpi\n        /* \"#utility.yul\":10674:10682   */\n      dup2\n        /* \"#utility.yul\":10659:10682   */\n      swap1\n      pop\n        /* \"#utility.yul\":10635:10684   */\n    tag_252:\n        /* \"#utility.yul\":10697:10777   */\n      tag_253\n        /* \"#utility.yul\":10753:10775   */\n      tag_254\n        /* \"#utility.yul\":10771:10774   */\n      dup6\n        /* \"#utility.yul\":10753:10775   */\n      tag_109\n      jump\t// in\n    tag_254:\n        /* \"#utility.yul\":10743:10751   */\n      dup4\n        /* \"#utility.yul\":10739:10776   */\n      add\n        /* \"#utility.yul\":10726:10737   */\n      dup3\n        /* \"#utility.yul\":10697:10777   */\n      tag_118\n      jump\t// in\n    tag_253:\n        /* \"#utility.yul\":10356:10787   */\n      pop\n      pop\n        /* \"#utility.yul\":10341:10787   */\n    tag_249:\n        /* \"#utility.yul\":10251:10794   */\n      pop\n      pop\n      pop\n      jump\t// out\n        /* \"#utility.yul\":10800:10917   */\n    tag_120:\n        /* \"#utility.yul\":10854:10862   */\n      0x00\n        /* \"#utility.yul\":10904:10909   */\n      dup3\n        /* \"#utility.yul\":10898:10902   */\n      dup3\n        /* \"#utility.yul\":10894:10910   */\n      shr\n        /* \"#utility.yul\":10873:10910   */\n      swap1\n      pop\n        /* \"#utility.yul\":10800:10917   */\n      swap3\n      swap2\n      pop\n      pop\n      jump\t// out\n        /* \"#utility.yul\":10923:11092   */\n    tag_121:\n        /* \"#utility.yul\":10967:10973   */\n      0x00\n        /* \"#utility.yul\":11000:11051   */\n      tag_257\n        /* \"#utility.yul\":11048:11049   */\n      0x00\n        /* \"#utility.yul\":11044:11050   */\n      not\n        /* \"#utility.yul\":11036:11041   */\n      dup5\n        /* \"#utility.yul\":11033:11034   */\n      0x08\n        /* \"#utility.yul\":11029:11042   */\n      mul\n        /* \"#utility.yul\":11000:11051   */\n      tag_120\n      jump\t// in\n    tag_257:\n        /* \"#utility.yul\":10996:11052   */\n      not\n        /* \"#utility.yul\":11081:11085   */\n      dup1\n        /* \"#utility.yul\":11075:11079   */\n      dup4\n        /* \"#utility.yul\":11071:11086   */\n      and\n        /* \"#utility.yul\":11061:11086   */\n      swap2\n      pop\n        /* \"#utility.yul\":10974:11092   */\n      pop\n        /* \"#utility.yul\":10923:11092   */\n      swap3\n      swap2\n      pop\n      pop\n      jump\t// out\n        /* \"#utility.yul\":11097:11392   */\n    tag_122:\n        /* \"#utility.yul\":11173:11177   */\n      0x00\n        /* \"#utility.yul\":11319:11348   */\n      tag_259\n        /* \"#utility.yul\":11344:11347   */\n      dup4\n        /* \"#utility.yul\":11338:11342   */\n      dup4\n        /* \"#utility.yul\":11319:11348   */\n      tag_121\n      jump\t// in\n    tag_259:\n        /* \"#utility.yul\":11311:11348   */\n      swap2\n      pop\n        /* \"#utility.yul\":11381:11384   */\n      dup3\n        /* \"#utility.yul\":11378:11379   */\n      0x02\n        /* \"#utility.yul\":11374:11385   */\n      mul\n        /* \"#utility.yul\":11368:11372   */\n      dup3\n        /* \"#utility.yul\":11365:11386   */\n      or\n        /* \"#utility.yul\":11357:11386   */\n      swap1\n      pop\n        /* \"#utility.yul\":11097:11392   */\n      swap3\n      swap2\n      pop\n      pop\n      jump\t// out\n        /* \"#utility.yul\":11397:12792   */\n    tag_59:\n        /* \"#utility.yul\":11514:11551   */\n      tag_261\n        /* \"#utility.yul\":11547:11550   */\n      dup3\n        /* \"#utility.yul\":11514:11551   */\n      tag_87\n      jump\t// in\n    tag_261:\n        /* \"#utility.yul\":11616:11634   */\n      0xffffffffffffffff\n        /* \"#utility.yul\":11608:11614   */\n      dup2\n        /* \"#utility.yul\":11605:11635   */\n      gt\n        /* \"#utility.yul\":11602:11658   */\n      iszero\n      tag_262\n      jumpi\n        /* \"#utility.yul\":11638:11656   */\n      tag_263\n      tag_94\n      jump\t// in\n    tag_263:\n        /* \"#utility.yul\":11602:11658   */\n    tag_262:\n        /* \"#utility.yul\":11682:11720   */\n      tag_264\n        /* \"#utility.yul\":11714:11718   */\n      dup3\n        /* \"#utility.yul\":11708:11719   */\n      sload\n        /* \"#utility.yul\":11682:11720   */\n      tag_63\n      jump\t// in\n    tag_264:\n        /* \"#utility.yul\":11767:11834   */\n      tag_265\n        /* \"#utility.yul\":11827:11833   */\n      dup3\n        /* \"#utility.yul\":11819:11825   */\n      dup3\n        /* \"#utility.yul\":11813:11817   */\n      dup6\n        /* \"#utility.yul\":11767:11834   */\n      tag_119\n      jump\t// in\n    tag_265:\n        /* \"#utility.yul\":11861:11862   */\n      0x00\n        /* \"#utility.yul\":11885:11889   */\n      0x20\n        /* \"#utility.yul\":11872:11889   */\n      swap1\n      pop\n        /* \"#utility.yul\":11917:11919   */\n      0x1f\n        /* \"#utility.yul\":11909:11915   */\n      dup4\n        /* \"#utility.yul\":11906:11920   */\n      gt\n        /* \"#utility.yul\":11934:11935   */\n      0x01\n        /* \"#utility.yul\":11929:12547   */\n      dup2\n      eq\n      tag_267\n      jumpi\n        /* \"#utility.yul\":12591:12592   */\n      0x00\n        /* \"#utility.yul\":12608:12614   */\n      dup5\n        /* \"#utility.yul\":12605:12682   */\n      iszero\n      tag_268\n      jumpi\n        /* \"#utility.yul\":12657:12666   */\n      dup3\n        /* \"#utility.yul\":12652:12655   */\n      dup8\n        /* \"#utility.yul\":12648:12667   */\n      add\n        /* \"#utility.yul\":12642:12668   */\n      mload\n        /* \"#utility.yul\":12633:12668   */\n      swap1\n      pop\n        /* \"#utility.yul\":12605:12682   */\n    tag_268:\n        /* \"#utility.yul\":12708:12775   */\n      tag_269\n        /* \"#utility.yul\":12768:12774   */\n      dup6\n        /* \"#utility.yul\":12761:12766   */\n      dup3\n        /* \"#utility.yul\":12708:12775   */\n      tag_122\n      jump\t// in\n    tag_269:\n        /* \"#utility.yul\":12702:12706   */\n      dup7\n        /* \"#utility.yul\":12695:12776   */\n      sstore\n        /* \"#utility.yul\":12564:12786   */\n      pop\n        /* \"#utility.yul\":11899:12786   */\n      jump(tag_266)\n        /* \"#utility.yul\":11929:12547   */\n    tag_267:\n        /* \"#utility.yul\":11981:11985   */\n      0x1f\n        /* \"#utility.yul\":11977:11986   */\n      not\n        /* \"#utility.yul\":11969:11975   */\n      dup5\n        /* \"#utility.yul\":11965:11987   */\n      and\n        /* \"#utility.yul\":12015:12052   */\n      tag_270\n        /* \"#utility.yul\":12047:12051   */\n      dup7\n        /* \"#utility.yul\":12015:12052   */\n      tag_108\n      jump\t// in\n    tag_270:\n        /* \"#utility.yul\":12074:12075   */\n      0x00\n        /* \"#utility.yul\":12088:12296   */\n    tag_271:\n        /* \"#utility.yul\":12102:12109   */\n      dup3\n        /* \"#utility.yul\":12099:12100   */\n      dup2\n        /* \"#utility.yul\":12096:12110   */\n      lt\n        /* \"#utility.yul\":12088:12296   */\n      iszero\n      tag_273\n      jumpi\n        /* \"#utility.yul\":12181:12190   */\n      dup5\n        /* \"#utility.yul\":12176:12179   */\n      dup10\n        /* \"#utility.yul\":12172:12191   */\n      add\n        /* \"#utility.yul\":12166:12192   */\n      mload\n        /* \"#utility.yul\":12158:12164   */\n      dup3\n        /* \"#utility.yul\":12151:12193   */\n      sstore\n        /* \"#utility.yul\":12232:12233   */\n      0x01\n        /* \"#utility.yul\":12224:12230   */\n      dup3\n        /* \"#utility.yul\":12220:12234   */\n      add\n        /* \"#utility.yul\":12210:12234   */\n      swap2\n      pop\n        /* \"#utility.yul\":12279:12281   */\n      0x20\n        /* \"#utility.yul\":12268:12277   */\n      dup6\n        /* \"#utility.yul\":12264:12282   */\n      add\n        /* \"#utility.yul\":12251:12282   */\n      swap5\n      pop\n        /* \"#utility.yul\":12125:12129   */\n      0x20\n        /* \"#utility.yul\":12122:12123   */\n      dup2\n        /* \"#utility.yul\":12118:12130   */\n      add\n        /* \"#utility.yul\":12113:12130   */\n      swap1\n      pop\n        /* \"#utility.yul\":12088:12296   */\n      jump(tag_271)\n    tag_273:\n        /* \"#utility.yul\":12324:12330   */\n      dup7\n        /* \"#utility.yul\":12315:12322   */\n      dup4\n        /* \"#utility.yul\":12312:12331   */\n      lt\n        /* \"#utility.yul\":12309:12488   */\n      iszero\n      tag_274\n      jumpi\n        /* \"#utility.yul\":12382:12391   */\n      dup5\n        /* \"#utility.yul\":12377:12380   */\n      dup10\n        /* \"#utility.yul\":12373:12392   */\n      add\n        /* \"#utility.yul\":12367:12393   */\n      mload\n        /* \"#utility.yul\":12425:12473   */\n      tag_275\n        /* \"#utility.yul\":12467:12471   */\n      0x1f\n        /* \"#utility.yul\":12459:12465   */\n      dup10\n        /* \"#utility.yul\":12455:12472   */\n      and\n        /* \"#utility.yul\":12444:12453   */\n      dup3\n        /* \"#utility.yul\":12425:12473   */\n      tag_121\n      jump\t// in\n    tag_275:\n        /* \"#utility.yul\":12417:12423   */\n      dup4\n        /* \"#utility.yul\":12410:12474   */\n      sstore\n        /* \"#utility.yul\":12332:12488   */\n      pop\n        /* \"#utility.yul\":12309:12488   */\n    tag_274:\n        /* \"#utility.yul\":12534:12535   */\n      0x01\n        /* \"#utility.yul\":12530:12531   */\n      0x02\n        /* \"#utility.yul\":12522:12528   */\n      dup9\n        /* \"#utility.yul\":12518:12532   */\n      mul\n        /* \"#utility.yul\":12514:12536   */\n      add\n        /* \"#utility.yul\":12508:12512   */\n      dup9\n        /* \"#utility.yul\":12501:12537   */\n      sstore\n        /* \"#utility.yul\":11936:12547   */\n      pop\n      pop\n      pop\n        /* \"#utility.yul\":11899:12786   */\n    tag_266:\n      pop\n        /* \"#utility.yul\":11489:12792   */\n      pop\n      pop\n      pop\n        /* \"#utility.yul\":11397:12792   */\n      pop\n      pop\n      jump\t// out\n        /* \"#utility.yul\":12798:12946   */\n    tag_123:\n        /* \"#utility.yul\":12900:12911   */\n      0x00\n        /* \"#utility.yul\":12937:12940   */\n      dup2\n        /* \"#utility.yul\":12922:12940   */\n      swap1\n      pop\n        /* \"#utility.yul\":12798:12946   */\n      swap3\n      swap2\n      pop\n      pop\n      jump\t// out\n        /* \"#utility.yul\":12952:13342   */\n    tag_124:\n        /* \"#utility.yul\":13058:13061   */\n      0x00\n        /* \"#utility.yul\":13086:13125   */\n      tag_278\n        /* \"#utility.yul\":13119:13124   */\n      dup3\n        /* \"#utility.yul\":13086:13125   */\n      tag_87\n      jump\t// in\n    tag_278:\n        /* \"#utility.yul\":13141:13230   */\n      tag_279\n        /* \"#utility.yul\":13223:13229   */\n      dup2\n        /* \"#utility.yul\":13218:13221   */\n      dup6\n        /* \"#utility.yul\":13141:13230   */\n      tag_123\n      jump\t// in\n    tag_279:\n        /* \"#utility.yul\":13134:13230   */\n      swap4\n      pop\n        /* \"#utility.yul\":13239:13304   */\n      tag_280\n        /* \"#utility.yul\":13297:13303   */\n      dup2\n        /* \"#utility.yul\":13292:13295   */\n      dup6\n        /* \"#utility.yul\":13285:13289   */\n      0x20\n        /* \"#utility.yul\":13278:13283   */\n      dup7\n        /* \"#utility.yul\":13274:13290   */\n      add\n        /* \"#utility.yul\":13239:13304   */\n      tag_89\n      jump\t// in\n    tag_280:\n        /* \"#utility.yul\":13329:13335   */\n      dup1\n        /* \"#utility.yul\":13324:13327   */\n      dup5\n        /* \"#utility.yul\":13320:13336   */\n      add\n        /* \"#utility.yul\":13313:13336   */\n      swap2\n      pop\n        /* \"#utility.yul\":13062:13342   */\n      pop\n        /* \"#utility.yul\":12952:13342   */\n      swap3\n      swap2\n      pop\n      pop\n      jump\t// out\n        /* \"#utility.yul\":13348:13783   */\n    tag_70:\n        /* \"#utility.yul\":13528:13531   */\n      0x00\n        /* \"#utility.yul\":13550:13645   */\n      tag_282\n        /* \"#utility.yul\":13641:13644   */\n      dup3\n        /* \"#utility.yul\":13632:13638   */\n      dup6\n        /* \"#utility.yul\":13550:13645   */\n      tag_124\n      jump\t// in\n    tag_282:\n        /* \"#utility.yul\":13543:13645   */\n      swap2\n      pop\n        /* \"#utility.yul\":13662:13757   */\n      tag_283\n        /* \"#utility.yul\":13753:13756   */\n      dup3\n        /* \"#utility.yul\":13744:13750   */\n      dup5\n        /* \"#utility.yul\":13662:13757   */\n      tag_124\n      jump\t// in\n    tag_283:\n        /* \"#utility.yul\":13655:13757   */\n      swap2\n      pop\n        /* \"#utility.yul\":13774:13777   */\n      dup2\n        /* \"#utility.yul\":13767:13777   */\n      swap1\n      pop\n        /* \"#utility.yul\":13348:13783   */\n      swap4\n      swap3\n      pop\n      pop\n      pop\n      jump\t// out\n        /* \"#utility.yul\":13789:13960   */\n    tag_76:\n        /* \"#utility.yul\":13828:13831   */\n      0x00\n        /* \"#utility.yul\":13851:13875   */\n      tag_285\n        /* \"#utility.yul\":13869:13874   */\n      dup3\n        /* \"#utility.yul\":13851:13875   */\n      tag_80\n      jump\t// in\n    tag_285:\n        /* \"#utility.yul\":13842:13875   */\n      swap2\n      pop\n        /* \"#utility.yul\":13897:13901   */\n      0x00\n        /* \"#utility.yul\":13890:13895   */\n      dup3\n        /* \"#utility.yul\":13887:13902   */\n      sub\n        /* \"#utility.yul\":13884:13925   */\n      tag_286\n      jumpi\n        /* \"#utility.yul\":13905:13923   */\n      tag_287\n      tag_103\n      jump\t// in\n    tag_287:\n        /* \"#utility.yul\":13884:13925   */\n    tag_286:\n        /* \"#utility.yul\":13952:13953   */\n      0x01\n        /* \"#utility.yul\":13945:13950   */\n      dup3\n        /* \"#utility.yul\":13941:13954   */\n      sub\n        /* \"#utility.yul\":13934:13954   */\n      swap1\n      pop\n        /* \"#utility.yul\":13789:13960   */\n      swap2\n      swap1\n      pop\n      jump\t// out\n        /* \"#utility.yul\":13966:14092   */\n    tag_125:\n        /* \"#utility.yul\":14003:14010   */\n      0x00\n        /* \"#utility.yul\":14043:14085   */\n      0xffffffffffffffffffffffffffffffffffffffff\n        /* \"#utility.yul\":14036:14041   */\n      dup3\n        /* \"#utility.yul\":14032:14086   */\n      and\n        /* \"#utility.yul\":14021:14086   */\n      swap1\n      pop\n        /* \"#utility.yul\":13966:14092   */\n      swap2\n      swap1\n      pop\n      jump\t// out\n        /* \"#utility.yul\":14098:14194   */\n    tag_126:\n        /* \"#utility.yul\":14135:14142   */\n      0x00\n        /* \"#utility.yul\":14164:14188   */\n      tag_290\n        /* \"#utility.yul\":14182:14187   */\n      dup3\n        /* \"#utility.yul\":14164:14188   */\n      tag_125\n      jump\t// in\n    tag_290:\n        /* \"#utility.yul\":14153:14188   */\n      swap1\n      pop\n        /* \"#utility.yul\":14098:14194   */\n      swap2\n      swap1\n      pop\n      jump\t// out\n        /* \"#utility.yul\":14200:14318   */\n    tag_127:\n        /* \"#utility.yul\":14287:14311   */\n      tag_292\n        /* \"#utility.yul\":14305:14310   */\n      dup2\n        /* \"#utility.yul\":14287:14311   */\n      tag_126\n      jump\t// in\n    tag_292:\n        /* \"#utility.yul\":14282:14285   */\n      dup3\n        /* \"#utility.yul\":14275:14312   */\n      mstore\n        /* \"#utility.yul\":14200:14318   */\n      pop\n      pop\n      jump\t// out\n        /* \"#utility.yul\":14324:14546   */\n    tag_79:\n        /* \"#utility.yul\":14417:14421   */\n      0x00\n        /* \"#utility.yul\":14455:14457   */\n      0x20\n        /* \"#utility.yul\":14444:14453   */\n      dup3\n        /* \"#utility.yul\":14440:14458   */\n      add\n        /* \"#utility.yul\":14432:14458   */\n      swap1\n      pop\n        /* \"#utility.yul\":14468:14539   */\n      tag_294\n        /* \"#utility.yul\":14536:14537   */\n      0x00\n        /* \"#utility.yul\":14525:14534   */\n      dup4\n        /* \"#utility.yul\":14521:14538   */\n      add\n        /* \"#utility.yul\":14512:14518   */\n      dup5\n        /* \"#utility.yul\":14468:14539   */\n      tag_127\n      jump\t// in\n    tag_294:\n        /* \"#utility.yul\":14324:14546   */\n      swap3\n      swap2\n      pop\n      pop\n      jump\t// out\n\n    auxdata: 0xa264697066735822122035dd1467ed181e81fcd3920cb3a029c79fa495dd2ba2ffcdfe638f49876f96e864736f6c634300081a0033\n}\n",
				"bytecode": {
					"linkReferences": {},
					"object": "60806040526040518060400160405280600b81526020017f48656c6c6f20576f726c640000000000000000000000000000000000000000008152505f9081610047919061033e565b5060018055600280555f60035f6101000a81548160ff0219169083151502179055506040518060400160405280600581526020017f48656c6c6f000000000000000000000000000000000000000000000000000000815250600490816100ad919061033e565b506040518060400160405280600581526020017f576f726c64000000000000000000000000000000000000000000000000000000815250600590816100f2919061033e565b503480156100fe575f80fd5b5061040d565b5f81519050919050565b7f4e487b71000000000000000000000000000000000000000000000000000000005f52604160045260245ffd5b7f4e487b71000000000000000000000000000000000000000000000000000000005f52602260045260245ffd5b5f600282049050600182168061017f57607f821691505b6020821081036101925761019161013b565b5b50919050565b5f819050815f5260205f209050919050565b5f6020601f8301049050919050565b5f82821b905092915050565b5f600883026101f47fffffffffffffffffffffffffffffffffffffffffffffffffffffffffffffffff826101b9565b6101fe86836101b9565b95508019841693508086168417925050509392505050565b5f819050919050565b5f819050919050565b5f61024261023d61023884610216565b61021f565b610216565b9050919050565b5f819050919050565b61025b83610228565b61026f61026782610249565b8484546101c5565b825550505050565b5f90565b610283610277565b61028e818484610252565b505050565b5b818110156102b1576102a65f8261027b565b600181019050610294565b5050565b601f8211156102f6576102c781610198565b6102d0846101aa565b810160208510156102df578190505b6102f36102eb856101aa565b830182610293565b50505b505050565b5f82821c905092915050565b5f6103165f19846008026102fb565b1980831691505092915050565b5f61032e8383610307565b9150826002028217905092915050565b61034782610104565b67ffffffffffffffff8111156103605761035f61010e565b5b61036a8254610168565b6103758282856102b5565b5f60209050601f8311600181146103a6575f8415610394578287015190505b61039e8582610323565b865550610405565b601f1984166103b486610198565b5f5b828110156103db578489015182556001820191506020850194506020810190506103b6565b868310156103f857848901516103f4601f891682610307565b8355505b6001600288020188555050505b505050505050565b610c7c8061041a5f395ff3fe608060405234801561000f575f80fd5b5060043610610086575f3560e01c80639d7e1308116100595780639d7e130814610114578063a90d89be14610144578063b3bcfa8214610162578063d803817a1461018057610086565b8063371303c01461008a5780634f2be91f146100a85780636b709e81146100c657806394caf3af146100f6575b5f80fd5b61009261018a565b60405161009f9190610451565b60405180910390f35b6100b06101a4565b6040516100bd9190610451565b60405180910390f35b6100e060048036038101906100db91906104a5565b6101ba565b6040516100ed9190610451565b60405180910390f35b6100fe61021d565b60405161010b9190610540565b60405180910390f35b61012e6004803603810190610129919061068c565b610352565b60405161013b9190610540565b60405180910390f35b61014c61037e565b604051610159919061071c565b60405180910390f35b61016a6103e6565b6040516101779190610451565b60405180910390f35b610188610400565b005b5f60015f815461019990610762565b919050819055905090565b5f6002546001546101b591906107a9565b905090565b5f806002836101c99190610809565b14610209576040517f08c379a000000000000000000000000000000000000000000000000000000000815260040161020090610883565b60405180910390fd5b8161021390610762565b9150819050919050565b60605f600260015461022f9190610809565b0361027e576040518060400160405280600481526020017f4576656e00000000000000000000000000000000000000000000000000000000815250600690816102789190610a9b565b506102c4565b6040518060400160405280600381526020017f4f64640000000000000000000000000000000000000000000000000000000000815250600690816102c29190610a9b565b505b600680546102d1906108ce565b80601f01602080910402602001604051908101604052809291908181526020018280546102fd906108ce565b80156103485780601f1061031f57610100808354040283529160200191610348565b820191905f5260205f20905b81548152906001019060200180831161032b57829003601f168201915b5050505050905090565b60608282604051602001610367929190610ba4565b604051602081830303815290604052905092915050565b5f6001151560035f9054906101000a900460ff161515036103b7575f60035f6101000a81548160ff0219169083151502179055506103d2565b600160035f6101000a81548160ff0219169083151502179055505b60035f9054906101000a900460ff16905090565b5f60015f81546103f590610bc7565b919050819055905090565b7f726e7b5cfad8a70a46ba20c9d13b7ca371c916cf7e2ad85fb6fe087899f2ea6a3360405161042f9190610c2d565b60405180910390a1565b5f819050919050565b61044b81610439565b82525050565b5f6020820190506104645f830184610442565b92915050565b5f604051905090565b5f80fd5b5f80fd5b61048481610439565b811461048e575f80fd5b50565b5f8135905061049f8161047b565b92915050565b5f602082840312156104ba576104b9610473565b5b5f6104c784828501610491565b91505092915050565b5f81519050919050565b5f82825260208201905092915050565b8281835e5f83830152505050565b5f601f19601f8301169050919050565b5f610512826104d0565b61051c81856104da565b935061052c8185602086016104ea565b610535816104f8565b840191505092915050565b5f6020820190508181035f8301526105588184610508565b905092915050565b5f80fd5b5f80fd5b7f4e487b71000000000000000000000000000000000000000000000000000000005f52604160045260245ffd5b61059e826104f8565b810181811067ffffffffffffffff821117156105bd576105bc610568565b5b80604052505050565b5f6105cf61046a565b90506105db8282610595565b919050565b5f67ffffffffffffffff8211156105fa576105f9610568565b5b610603826104f8565b9050602081019050919050565b828183375f83830152505050565b5f61063061062b846105e0565b6105c6565b90508281526020810184848401111561064c5761064b610564565b5b610657848285610610565b509392505050565b5f82601f83011261067357610672610560565b5b813561068384826020860161061e565b91505092915050565b5f80604083850312156106a2576106a1610473565b5b5f83013567ffffffffffffffff8111156106bf576106be610477565b5b6106cb8582860161065f565b925050602083013567ffffffffffffffff8111156106ec576106eb610477565b5b6106f88582860161065f565b9150509250929050565b5f8115159050919050565b61071681610702565b82525050565b5f60208201905061072f5f83018461070d565b92915050565b7f4e487b71000000000000000000000000000000000000000000000000000000005f52601160045260245ffd5b5f61076c82610439565b91507fffffffffffffffffffffffffffffffffffffffffffffffffffffffffffffffff820361079e5761079d610735565b5b600182019050919050565b5f6107b382610439565b91506107be83610439565b92508282019050808211156107d6576107d5610735565b5b92915050565b7f4e487b71000000000000000000000000000000000000000000000000000000005f52601260045260245ffd5b5f61081382610439565b915061081e83610439565b92508261082e5761082d6107dc565b5b828206905092915050565b7f6f6464204e756d626572000000000000000000000000000000000000000000005f82015250565b5f61086d600a836104da565b915061087882610839565b602082019050919050565b5f6020820190508181035f83015261089a81610861565b9050919050565b7f4e487b71000000000000000000000000000000000000000000000000000000005f52602260045260245ffd5b5f60028204905060018216806108e557607f821691505b6020821081036108f8576108f76108a1565b5b50919050565b5f819050815f5260205f209050919050565b5f6020601f8301049050919050565b5f82821b905092915050565b5f6008830261095a7fffffffffffffffffffffffffffffffffffffffffffffffffffffffffffffffff8261091f565b610964868361091f565b95508019841693508086168417925050509392505050565b5f819050919050565b5f61099f61099a61099584610439565b61097c565b610439565b9050919050565b5f819050919050565b6109b883610985565b6109cc6109c4826109a6565b84845461092b565b825550505050565b5f90565b6109e06109d4565b6109eb8184846109af565b505050565b5b81811015610a0e57610a035f826109d8565b6001810190506109f1565b5050565b601f821115610a5357610a24816108fe565b610a2d84610910565b81016020851015610a3c578190505b610a50610a4885610910565b8301826109f0565b50505b505050565b5f82821c905092915050565b5f610a735f1984600802610a58565b1980831691505092915050565b5f610a8b8383610a64565b9150826002028217905092915050565b610aa4826104d0565b67ffffffffffffffff811115610abd57610abc610568565b5b610ac782546108ce565b610ad2828285610a12565b5f60209050601f831160018114610b03575f8415610af1578287015190505b610afb8582610a80565b865550610b62565b601f198416610b11866108fe565b5f5b82811015610b3857848901518255600182019150602085019450602081019050610b13565b86831015610b555784890151610b51601f891682610a64565b8355505b6001600288020188555050505b505050505050565b5f81905092915050565b5f610b7e826104d0565b610b888185610b6a565b9350610b988185602086016104ea565b80840191505092915050565b5f610baf8285610b74565b9150610bbb8284610b74565b91508190509392505050565b5f610bd182610439565b91505f8203610be357610be2610735565b5b600182039050919050565b5f73ffffffffffffffffffffffffffffffffffffffff82169050919050565b5f610c1782610bee565b9050919050565b610c2781610c0d565b82525050565b5f602082019050610c405f830184610c1e565b9291505056fea264697066735822122035dd1467ed181e81fcd3920cb3a029c79fa495dd2ba2ffcdfe638f49876f96e864736f6c634300081a0033",
					"opcodes": "PUSH1 0x80 PUSH1 0x40 MSTORE PUSH1 0x40 MLOAD DUP1 PUSH1 0x40 ADD PUSH1 0x40 MSTORE DUP1 PUSH1 0xB DUP2 MSTORE PUSH1 0x20 ADD PUSH32 0x48656C6C6F20576F726C64000000000000000000000000000000000000000000 DUP2 MSTORE POP PUSH0 SWAP1 DUP2 PUSH2 0x47 SWAP2 SWAP1 PUSH2 0x33E JUMP JUMPDEST POP PUSH1 0x1 DUP1 SSTORE PUSH1 0x2 DUP1 SSTORE PUSH0 PUSH1 0x3 PUSH0 PUSH2 0x100 EXP DUP2 SLOAD DUP2 PUSH1 0xFF MUL NOT AND SWAP1 DUP4 ISZERO ISZERO MUL OR SWAP1 SSTORE POP PUSH1 0x40 MLOAD DUP1 PUSH1 0x40 ADD PUSH1 0x40 MSTORE DUP1 PUSH1 0x5 DUP2 MSTORE PUSH1 0x20 ADD PUSH32 0x48656C6C6F000000000000000000000000000000000000000000000000000000 DUP2 MSTORE POP PUSH1 0x4 SWAP1 DUP2 PUSH2 0xAD SWAP2 SWAP1 PUSH2 0x33E JUMP JUMPDEST POP PUSH1 0x40 MLOAD DUP1 PUSH1 0x40 ADD PUSH1 0x40 MSTORE DUP1 PUSH1 0x5 DUP2 MSTORE PUSH1 0x20 ADD PUSH32 0x576F726C64000000000000000000000000000000000000000000000000000000 DUP2 MSTORE POP PUSH1 0x5 SWAP1 DUP2 PUSH2 0xF2 SWAP2 SWAP1 PUSH2 0x33E JUMP JUMPDEST POP CALLVALUE DUP1 ISZERO PUSH2 0xFE JUMPI PUSH0 DUP1 REVERT JUMPDEST POP PUSH2 0x40D JUMP JUMPDEST PUSH0 DUP2 MLOAD SWAP1 POP SWAP2 SWAP1 POP JUMP JUMPDEST PUSH32 0x4E487B7100000000000000000000000000000000000000000000000000000000 PUSH0 MSTORE PUSH1 0x41 PUSH1 0x4 MSTORE PUSH1 0x24 PUSH0 REVERT JUMPDEST PUSH32 0x4E487B7100000000000000000000000000000000000000000000000000000000 PUSH0 MSTORE PUSH1 0x22 PUSH1 0x4 MSTORE PUSH1 0x24 PUSH0 REVERT JUMPDEST PUSH0 PUSH1 0x2 DUP3 DIV SWAP1 POP PUSH1 0x1 DUP3 AND DUP1 PUSH2 0x17F JUMPI PUSH1 0x7F DUP3 AND SWAP2 POP JUMPDEST PUSH1 0x20 DUP3 LT DUP2 SUB PUSH2 0x192 JUMPI PUSH2 0x191 PUSH2 0x13B JUMP JUMPDEST JUMPDEST POP SWAP2 SWAP1 POP JUMP JUMPDEST PUSH0 DUP2 SWAP1 POP DUP2 PUSH0 MSTORE PUSH1 0x20 PUSH0 KECCAK256 SWAP1 POP SWAP2 SWAP1 POP JUMP JUMPDEST PUSH0 PUSH1 0x20 PUSH1 0x1F DUP4 ADD DIV SWAP1 POP SWAP2 SWAP1 POP JUMP JUMPDEST PUSH0 DUP3 DUP3 SHL SWAP1 POP SWAP3 SWAP2 POP POP JUMP JUMPDEST PUSH0 PUSH1 0x8 DUP4 MUL PUSH2 0x1F4 PUSH32 0xFFFFFFFFFFFFFFFFFFFFFFFFFFFFFFFFFFFFFFFFFFFFFFFFFFFFFFFFFFFFFFFF DUP3 PUSH2 0x1B9 JUMP JUMPDEST PUSH2 0x1FE DUP7 DUP4 PUSH2 0x1B9 JUMP JUMPDEST SWAP6 POP DUP1 NOT DUP5 AND SWAP4 POP DUP1 DUP7 AND DUP5 OR SWAP3 POP POP POP SWAP4 SWAP3 POP POP POP JUMP JUMPDEST PUSH0 DUP2 SWAP1 POP SWAP2 SWAP1 POP JUMP JUMPDEST PUSH0 DUP2 SWAP1 POP SWAP2 SWAP1 POP JUMP JUMPDEST PUSH0 PUSH2 0x242 PUSH2 0x23D PUSH2 0x238 DUP5 PUSH2 0x216 JUMP JUMPDEST PUSH2 0x21F JUMP JUMPDEST PUSH2 0x216 JUMP JUMPDEST SWAP1 POP SWAP2 SWAP1 POP JUMP JUMPDEST PUSH0 DUP2 SWAP1 POP SWAP2 SWAP1 POP JUMP JUMPDEST PUSH2 0x25B DUP4 PUSH2 0x228 JUMP JUMPDEST PUSH2 0x26F PUSH2 0x267 DUP3 PUSH2 0x249 JUMP JUMPDEST DUP5 DUP5 SLOAD PUSH2 0x1C5 JUMP JUMPDEST DUP3 SSTORE POP POP POP POP JUMP JUMPDEST PUSH0 SWAP1 JUMP JUMPDEST PUSH2 0x283 PUSH2 0x277 JUMP JUMPDEST PUSH2 0x28E DUP2 DUP5 DUP5 PUSH2 0x252 JUMP JUMPDEST POP POP POP JUMP JUMPDEST JUMPDEST DUP2 DUP2 LT ISZERO PUSH2 0x2B1 JUMPI PUSH2 0x2A6 PUSH0 DUP3 PUSH2 0x27B JUMP JUMPDEST PUSH1 0x1 DUP2 ADD SWAP1 POP PUSH2 0x294 JUMP JUMPDEST POP POP JUMP JUMPDEST PUSH1 0x1F DUP3 GT ISZERO PUSH2 0x2F6 JUMPI PUSH2 0x2C7 DUP2 PUSH2 0x198 JUMP JUMPDEST PUSH2 0x2D0 DUP5 PUSH2 0x1AA JUMP JUMPDEST DUP2 ADD PUSH1 0x20 DUP6 LT ISZERO PUSH2 0x2DF JUMPI DUP2 SWAP1 POP JUMPDEST PUSH2 0x2F3 PUSH2 0x2EB DUP6 PUSH2 0x1AA JUMP JUMPDEST DUP4 ADD DUP3 PUSH2 0x293 JUMP JUMPDEST POP POP JUMPDEST POP POP POP JUMP JUMPDEST PUSH0 DUP3 DUP3 SHR SWAP1 POP SWAP3 SWAP2 POP POP JUMP JUMPDEST PUSH0 PUSH2 0x316 PUSH0 NOT DUP5 PUSH1 0x8 MUL PUSH2 0x2FB JUMP JUMPDEST NOT DUP1 DUP4 AND SWAP2 POP POP SWAP3 SWAP2 POP POP JUMP JUMPDEST PUSH0 PUSH2 0x32E DUP4 DUP4 PUSH2 0x307 JUMP JUMPDEST SWAP2 POP DUP3 PUSH1 0x2 MUL DUP3 OR SWAP1 POP SWAP3 SWAP2 POP POP JUMP JUMPDEST PUSH2 0x347 DUP3 PUSH2 0x104 JUMP JUMPDEST PUSH8 0xFFFFFFFFFFFFFFFF DUP2 GT ISZERO PUSH2 0x360 JUMPI PUSH2 0x35F PUSH2 0x10E JUMP JUMPDEST JUMPDEST PUSH2 0x36A DUP3 SLOAD PUSH2 0x168 JUMP JUMPDEST PUSH2 0x375 DUP3 DUP3 DUP6 PUSH2 0x2B5 JUMP JUMPDEST PUSH0 PUSH1 0x20 SWAP1 POP PUSH1 0x1F DUP4 GT PUSH1 0x1 DUP2 EQ PUSH2 0x3A6 JUMPI PUSH0 DUP5 ISZERO PUSH2 0x394 JUMPI DUP3 DUP8 ADD MLOAD SWAP1 POP JUMPDEST PUSH2 0x39E DUP6 DUP3 PUSH2 0x323 JUMP JUMPDEST DUP7 SSTORE POP PUSH2 0x405 JUMP JUMPDEST PUSH1 0x1F NOT DUP5 AND PUSH2 0x3B4 DUP7 PUSH2 0x198 JUMP JUMPDEST PUSH0 JUMPDEST DUP3 DUP2 LT ISZERO PUSH2 0x3DB JUMPI DUP5 DUP10 ADD MLOAD DUP3 SSTORE PUSH1 0x1 DUP3 ADD SWAP2 POP PUSH1 0x20 DUP6 ADD SWAP5 POP PUSH1 0x20 DUP2 ADD SWAP1 POP PUSH2 0x3B6 JUMP JUMPDEST DUP7 DUP4 LT ISZERO PUSH2 0x3F8 JUMPI DUP5 DUP10 ADD MLOAD PUSH2 0x3F4 PUSH1 0x1F DUP10 AND DUP3 PUSH2 0x307 JUMP JUMPDEST DUP4 SSTORE POP JUMPDEST PUSH1 0x1 PUSH1 0x2 DUP9 MUL ADD DUP9 SSTORE POP POP POP JUMPDEST POP POP POP POP POP POP JUMP JUMPDEST PUSH2 0xC7C DUP1 PUSH2 0x41A PUSH0 CODECOPY PUSH0 RETURN INVALID PUSH1 0x80 PUSH1 0x40 MSTORE CALLVALUE DUP1 ISZERO PUSH2 0xF JUMPI PUSH0 DUP1 REVERT JUMPDEST POP PUSH1 0x4 CALLDATASIZE LT PUSH2 0x86 JUMPI PUSH0 CALLDATALOAD PUSH1 0xE0 SHR DUP1 PUSH4 0x9D7E1308 GT PUSH2 0x59 JUMPI DUP1 PUSH4 0x9D7E1308 EQ PUSH2 0x114 JUMPI DUP1 PUSH4 0xA90D89BE EQ PUSH2 0x144 JUMPI DUP1 PUSH4 0xB3BCFA82 EQ PUSH2 0x162 JUMPI DUP1 PUSH4 0xD803817A EQ PUSH2 0x180 JUMPI PUSH2 0x86 JUMP JUMPDEST DUP1 PUSH4 0x371303C0 EQ PUSH2 0x8A JUMPI DUP1 PUSH4 0x4F2BE91F EQ PUSH2 0xA8 JUMPI DUP1 PUSH4 0x6B709E81 EQ PUSH2 0xC6 JUMPI DUP1 PUSH4 0x94CAF3AF EQ PUSH2 0xF6 JUMPI JUMPDEST PUSH0 DUP1 REVERT JUMPDEST PUSH2 0x92 PUSH2 0x18A JUMP JUMPDEST PUSH1 0x40 MLOAD PUSH2 0x9F SWAP2 SWAP1 PUSH2 0x451 JUMP JUMPDEST PUSH1 0x40 MLOAD DUP1 SWAP2 SUB SWAP1 RETURN JUMPDEST PUSH2 0xB0 PUSH2 0x1A4 JUMP JUMPDEST PUSH1 0x40 MLOAD PUSH2 0xBD SWAP2 SWAP1 PUSH2 0x451 JUMP JUMPDEST PUSH1 0x40 MLOAD DUP1 SWAP2 SUB SWAP1 RETURN JUMPDEST PUSH2 0xE0 PUSH1 0x4 DUP1 CALLDATASIZE SUB DUP2 ADD SWAP1 PUSH2 0xDB SWAP2 SWAP1 PUSH2 0x4A5 JUMP JUMPDEST PUSH2 0x1BA JUMP JUMPDEST PUSH1 0x40 MLOAD PUSH2 0xED SWAP2 SWAP1 PUSH2 0x451 JUMP JUMPDEST PUSH1 0x40 MLOAD DUP1 SWAP2 SUB SWAP1 RETURN JUMPDEST PUSH2 0xFE PUSH2 0x21D JUMP JUMPDEST PUSH1 0x40 MLOAD PUSH2 0x10B SWAP2 SWAP1 PUSH2 0x540 JUMP JUMPDEST PUSH1 0x40 MLOAD DUP1 SWAP2 SUB SWAP1 RETURN JUMPDEST PUSH2 0x12E PUSH1 0x4 DUP1 CALLDATASIZE SUB DUP2 ADD SWAP1 PUSH2 0x129 SWAP2 SWAP1 PUSH2 0x68C JUMP JUMPDEST PUSH2 0x352 JUMP JUMPDEST PUSH1 0x40 MLOAD PUSH2 0x13B SWAP2 SWAP1 PUSH2 0x540 JUMP JUMPDEST PUSH1 0x40 MLOAD DUP1 SWAP2 SUB SWAP1 RETURN JUMPDEST PUSH2 0x14C PUSH2 0x37E JUMP JUMPDEST PUSH1 0x40 MLOAD PUSH2 0x159 SWAP2 SWAP1 PUSH2 0x71C JUMP JUMPDEST PUSH1 0x40 MLOAD DUP1 SWAP2 SUB SWAP1 RETURN JUMPDEST PUSH2 0x16A PUSH2 0x3E6 JUMP JUMPDEST PUSH1 0x40 MLOAD PUSH2 0x177 SWAP2 SWAP1 PUSH2 0x451 JUMP JUMPDEST PUSH1 0x40 MLOAD DUP1 SWAP2 SUB SWAP1 RETURN JUMPDEST PUSH2 0x188 PUSH2 0x400 JUMP JUMPDEST STOP JUMPDEST PUSH0 PUSH1 0x1 PUSH0 DUP2 SLOAD PUSH2 0x199 SWAP1 PUSH2 0x762 JUMP JUMPDEST SWAP2 SWAP1 POP DUP2 SWAP1 SSTORE SWAP1 POP SWAP1 JUMP JUMPDEST PUSH0 PUSH1 0x2 SLOAD PUSH1 0x1 SLOAD PUSH2 0x1B5 SWAP2 SWAP1 PUSH2 0x7A9 JUMP JUMPDEST SWAP1 POP SWAP1 JUMP JUMPDEST PUSH0 DUP1 PUSH1 0x2 DUP4 PUSH2 0x1C9 SWAP2 SWAP1 PUSH2 0x809 JUMP JUMPDEST EQ PUSH2 0x209 JUMPI PUSH1 0x40 MLOAD PUSH32 0x8C379A000000000000000000000000000000000000000000000000000000000 DUP2 MSTORE PUSH1 0x4 ADD PUSH2 0x200 SWAP1 PUSH2 0x883 JUMP JUMPDEST PUSH1 0x40 MLOAD DUP1 SWAP2 SUB SWAP1 REVERT JUMPDEST DUP2 PUSH2 0x213 SWAP1 PUSH2 0x762 JUMP JUMPDEST SWAP2 POP DUP2 SWAP1 POP SWAP2 SWAP1 POP JUMP JUMPDEST PUSH1 0x60 PUSH0 PUSH1 0x2 PUSH1 0x1 SLOAD PUSH2 0x22F SWAP2 SWAP1 PUSH2 0x809 JUMP JUMPDEST SUB PUSH2 0x27E JUMPI PUSH1 0x40 MLOAD DUP1 PUSH1 0x40 ADD PUSH1 0x40 MSTORE DUP1 PUSH1 0x4 DUP2 MSTORE PUSH1 0x20 ADD PUSH32 0x4576656E00000000000000000000000000000000000000000000000000000000 DUP2 MSTORE POP PUSH1 0x6 SWAP1 DUP2 PUSH2 0x278 SWAP2 SWAP1 PUSH2 0xA9B JUMP JUMPDEST POP PUSH2 0x2C4 JUMP JUMPDEST PUSH1 0x40 MLOAD DUP1 PUSH1 0x40 ADD PUSH1 0x40 MSTORE DUP1 PUSH1 0x3 DUP2 MSTORE PUSH1 0x20 ADD PUSH32 0x4F64640000000000000000000000000000000000000000000000000000000000 DUP2 MSTORE POP PUSH1 0x6 SWAP1 DUP2 PUSH2 0x2C2 SWAP2 SWAP1 PUSH2 0xA9B JUMP JUMPDEST POP JUMPDEST PUSH1 0x6 DUP1 SLOAD PUSH2 0x2D1 SWAP1 PUSH2 0x8CE JUMP JUMPDEST DUP1 PUSH1 0x1F ADD PUSH1 0x20 DUP1 SWAP2 DIV MUL PUSH1 0x20 ADD PUSH1 0x40 MLOAD SWAP1 DUP2 ADD PUSH1 0x40 MSTORE DUP1 SWAP3 SWAP2 SWAP1 DUP2 DUP2 MSTORE PUSH1 0x20 ADD DUP3 DUP1 SLOAD PUSH2 0x2FD SWAP1 PUSH2 0x8CE JUMP JUMPDEST DUP1 ISZERO PUSH2 0x348 JUMPI DUP1 PUSH1 0x1F LT PUSH2 0x31F JUMPI PUSH2 0x100 DUP1 DUP4 SLOAD DIV MUL DUP4 MSTORE SWAP2 PUSH1 0x20 ADD SWAP2 PUSH2 0x348 JUMP JUMPDEST DUP3 ADD SWAP2 SWAP1 PUSH0 MSTORE PUSH1 0x20 PUSH0 KECCAK256 SWAP1 JUMPDEST DUP2 SLOAD DUP2 MSTORE SWAP1 PUSH1 0x1 ADD SWAP1 PUSH1 0x20 ADD DUP1 DUP4 GT PUSH2 0x32B JUMPI DUP3 SWAP1 SUB PUSH1 0x1F AND DUP3 ADD SWAP2 JUMPDEST POP POP POP POP POP SWAP1 POP SWAP1 JUMP JUMPDEST PUSH1 0x60 DUP3 DUP3 PUSH1 0x40 MLOAD PUSH1 0x20 ADD PUSH2 0x367 SWAP3 SWAP2 SWAP1 PUSH2 0xBA4 JUMP JUMPDEST PUSH1 0x40 MLOAD PUSH1 0x20 DUP2 DUP4 SUB SUB DUP2 MSTORE SWAP1 PUSH1 0x40 MSTORE SWAP1 POP SWAP3 SWAP2 POP POP JUMP JUMPDEST PUSH0 PUSH1 0x1 ISZERO ISZERO PUSH1 0x3 PUSH0 SWAP1 SLOAD SWAP1 PUSH2 0x100 EXP SWAP1 DIV PUSH1 0xFF AND ISZERO ISZERO SUB PUSH2 0x3B7 JUMPI PUSH0 PUSH1 0x3 PUSH0 PUSH2 0x100 EXP DUP2 SLOAD DUP2 PUSH1 0xFF MUL NOT AND SWAP1 DUP4 ISZERO ISZERO MUL OR SWAP1 SSTORE POP PUSH2 0x3D2 JUMP JUMPDEST PUSH1 0x1 PUSH1 0x3 PUSH0 PUSH2 0x100 EXP DUP2 SLOAD DUP2 PUSH1 0xFF MUL NOT AND SWAP1 DUP4 ISZERO ISZERO MUL OR SWAP1 SSTORE POP JUMPDEST PUSH1 0x3 PUSH0 SWAP1 SLOAD SWAP1 PUSH2 0x100 EXP SWAP1 DIV PUSH1 0xFF AND SWAP1 POP SWAP1 JUMP JUMPDEST PUSH0 PUSH1 0x1 PUSH0 DUP2 SLOAD PUSH2 0x3F5 SWAP1 PUSH2 0xBC7 JUMP JUMPDEST SWAP2 SWAP1 POP DUP2 SWAP1 SSTORE SWAP1 POP SWAP1 JUMP JUMPDEST PUSH32 0x726E7B5CFAD8A70A46BA20C9D13B7CA371C916CF7E2AD85FB6FE087899F2EA6A CALLER PUSH1 0x40 MLOAD PUSH2 0x42F SWAP2 SWAP1 PUSH2 0xC2D JUMP JUMPDEST PUSH1 0x40 MLOAD DUP1 SWAP2 SUB SWAP1 LOG1 JUMP JUMPDEST PUSH0 DUP2 SWAP1 POP SWAP2 SWAP1 POP JUMP JUMPDEST PUSH2 0x44B DUP2 PUSH2 0x439 JUMP JUMPDEST DUP3 MSTORE POP POP JUMP JUMPDEST PUSH0 PUSH1 0x20 DUP3 ADD SWAP1 POP PUSH2 0x464 PUSH0 DUP4 ADD DUP5 PUSH2 0x442 JUMP JUMPDEST SWAP3 SWAP2 POP POP JUMP JUMPDEST PUSH0 PUSH1 0x40 MLOAD SWAP1 POP SWAP1 JUMP JUMPDEST PUSH0 DUP1 REVERT JUMPDEST PUSH0 DUP1 REVERT JUMPDEST PUSH2 0x484 DUP2 PUSH2 0x439 JUMP JUMPDEST DUP2 EQ PUSH2 0x48E JUMPI PUSH0 DUP1 REVERT JUMPDEST POP JUMP JUMPDEST PUSH0 DUP2 CALLDATALOAD SWAP1 POP PUSH2 0x49F DUP2 PUSH2 0x47B JUMP JUMPDEST SWAP3 SWAP2 POP POP JUMP JUMPDEST PUSH0 PUSH1 0x20 DUP3 DUP5 SUB SLT ISZERO PUSH2 0x4BA JUMPI PUSH2 0x4B9 PUSH2 0x473 JUMP JUMPDEST JUMPDEST PUSH0 PUSH2 0x4C7 DUP5 DUP3 DUP6 ADD PUSH2 0x491 JUMP JUMPDEST SWAP2 POP POP SWAP3 SWAP2 POP POP JUMP JUMPDEST PUSH0 DUP2 MLOAD SWAP1 POP SWAP2 SWAP1 POP JUMP JUMPDEST PUSH0 DUP3 DUP3 MSTORE PUSH1 0x20 DUP3 ADD SWAP1 POP SWAP3 SWAP2 POP POP JUMP JUMPDEST DUP3 DUP2 DUP4 MCOPY PUSH0 DUP4 DUP4 ADD MSTORE POP POP POP JUMP JUMPDEST PUSH0 PUSH1 0x1F NOT PUSH1 0x1F DUP4 ADD AND SWAP1 POP SWAP2 SWAP1 POP JUMP JUMPDEST PUSH0 PUSH2 0x512 DUP3 PUSH2 0x4D0 JUMP JUMPDEST PUSH2 0x51C DUP2 DUP6 PUSH2 0x4DA JUMP JUMPDEST SWAP4 POP PUSH2 0x52C DUP2 DUP6 PUSH1 0x20 DUP7 ADD PUSH2 0x4EA JUMP JUMPDEST PUSH2 0x535 DUP2 PUSH2 0x4F8 JUMP JUMPDEST DUP5 ADD SWAP2 POP POP SWAP3 SWAP2 POP POP JUMP JUMPDEST PUSH0 PUSH1 0x20 DUP3 ADD SWAP1 POP DUP2 DUP2 SUB PUSH0 DUP4 ADD MSTORE PUSH2 0x558 DUP2 DUP5 PUSH2 0x508 JUMP JUMPDEST SWAP1 POP SWAP3 SWAP2 POP POP JUMP JUMPDEST PUSH0 DUP1 REVERT JUMPDEST PUSH0 DUP1 REVERT JUMPDEST PUSH32 0x4E487B7100000000000000000000000000000000000000000000000000000000 PUSH0 MSTORE PUSH1 0x41 PUSH1 0x4 MSTORE PUSH1 0x24 PUSH0 REVERT JUMPDEST PUSH2 0x59E DUP3 PUSH2 0x4F8 JUMP JUMPDEST DUP2 ADD DUP2 DUP2 LT PUSH8 0xFFFFFFFFFFFFFFFF DUP3 GT OR ISZERO PUSH2 0x5BD JUMPI PUSH2 0x5BC PUSH2 0x568 JUMP JUMPDEST JUMPDEST DUP1 PUSH1 0x40 MSTORE POP POP POP JUMP JUMPDEST PUSH0 PUSH2 0x5CF PUSH2 0x46A JUMP JUMPDEST SWAP1 POP PUSH2 0x5DB DUP3 DUP3 PUSH2 0x595 JUMP JUMPDEST SWAP2 SWAP1 POP JUMP JUMPDEST PUSH0 PUSH8 0xFFFFFFFFFFFFFFFF DUP3 GT ISZERO PUSH2 0x5FA JUMPI PUSH2 0x5F9 PUSH2 0x568 JUMP JUMPDEST JUMPDEST PUSH2 0x603 DUP3 PUSH2 0x4F8 JUMP JUMPDEST SWAP1 POP PUSH1 0x20 DUP2 ADD SWAP1 POP SWAP2 SWAP1 POP JUMP JUMPDEST DUP3 DUP2 DUP4 CALLDATACOPY PUSH0 DUP4 DUP4 ADD MSTORE POP POP POP JUMP JUMPDEST PUSH0 PUSH2 0x630 PUSH2 0x62B DUP5 PUSH2 0x5E0 JUMP JUMPDEST PUSH2 0x5C6 JUMP JUMPDEST SWAP1 POP DUP3 DUP2 MSTORE PUSH1 0x20 DUP2 ADD DUP5 DUP5 DUP5 ADD GT ISZERO PUSH2 0x64C JUMPI PUSH2 0x64B PUSH2 0x564 JUMP JUMPDEST JUMPDEST PUSH2 0x657 DUP5 DUP3 DUP6 PUSH2 0x610 JUMP JUMPDEST POP SWAP4 SWAP3 POP POP POP JUMP JUMPDEST PUSH0 DUP3 PUSH1 0x1F DUP4 ADD SLT PUSH2 0x673 JUMPI PUSH2 0x672 PUSH2 0x560 JUMP JUMPDEST JUMPDEST DUP2 CALLDATALOAD PUSH2 0x683 DUP5 DUP3 PUSH1 0x20 DUP7 ADD PUSH2 0x61E JUMP JUMPDEST SWAP2 POP POP SWAP3 SWAP2 POP POP JUMP JUMPDEST PUSH0 DUP1 PUSH1 0x40 DUP4 DUP6 SUB SLT ISZERO PUSH2 0x6A2 JUMPI PUSH2 0x6A1 PUSH2 0x473 JUMP JUMPDEST JUMPDEST PUSH0 DUP4 ADD CALLDATALOAD PUSH8 0xFFFFFFFFFFFFFFFF DUP2 GT ISZERO PUSH2 0x6BF JUMPI PUSH2 0x6BE PUSH2 0x477 JUMP JUMPDEST JUMPDEST PUSH2 0x6CB DUP6 DUP3 DUP7 ADD PUSH2 0x65F JUMP JUMPDEST SWAP3 POP POP PUSH1 0x20 DUP4 ADD CALLDATALOAD PUSH8 0xFFFFFFFFFFFFFFFF DUP2 GT ISZERO PUSH2 0x6EC JUMPI PUSH2 0x6EB PUSH2 0x477 JUMP JUMPDEST JUMPDEST PUSH2 0x6F8 DUP6 DUP3 DUP7 ADD PUSH2 0x65F JUMP JUMPDEST SWAP2 POP POP SWAP3 POP SWAP3 SWAP1 POP JUMP JUMPDEST PUSH0 DUP2 ISZERO ISZERO SWAP1 POP SWAP2 SWAP1 POP JUMP JUMPDEST PUSH2 0x716 DUP2 PUSH2 0x702 JUMP JUMPDEST DUP3 MSTORE POP POP JUMP JUMPDEST PUSH0 PUSH1 0x20 DUP3 ADD SWAP1 POP PUSH2 0x72F PUSH0 DUP4 ADD DUP5 PUSH2 0x70D JUMP JUMPDEST SWAP3 SWAP2 POP POP JUMP JUMPDEST PUSH32 0x4E487B7100000000000000000000000000000000000000000000000000000000 PUSH0 MSTORE PUSH1 0x11 PUSH1 0x4 MSTORE PUSH1 0x24 PUSH0 REVERT JUMPDEST PUSH0 PUSH2 0x76C DUP3 PUSH2 0x439 JUMP JUMPDEST SWAP2 POP PUSH32 0xFFFFFFFFFFFFFFFFFFFFFFFFFFFFFFFFFFFFFFFFFFFFFFFFFFFFFFFFFFFFFFFF DUP3 SUB PUSH2 0x79E JUMPI PUSH2 0x79D PUSH2 0x735 JUMP JUMPDEST JUMPDEST PUSH1 0x1 DUP3 ADD SWAP1 POP SWAP2 SWAP1 POP JUMP JUMPDEST PUSH0 PUSH2 0x7B3 DUP3 PUSH2 0x439 JUMP JUMPDEST SWAP2 POP PUSH2 0x7BE DUP4 PUSH2 0x439 JUMP JUMPDEST SWAP3 POP DUP3 DUP3 ADD SWAP1 POP DUP1 DUP3 GT ISZERO PUSH2 0x7D6 JUMPI PUSH2 0x7D5 PUSH2 0x735 JUMP JUMPDEST JUMPDEST SWAP3 SWAP2 POP POP JUMP JUMPDEST PUSH32 0x4E487B7100000000000000000000000000000000000000000000000000000000 PUSH0 MSTORE PUSH1 0x12 PUSH1 0x4 MSTORE PUSH1 0x24 PUSH0 REVERT JUMPDEST PUSH0 PUSH2 0x813 DUP3 PUSH2 0x439 JUMP JUMPDEST SWAP2 POP PUSH2 0x81E DUP4 PUSH2 0x439 JUMP JUMPDEST SWAP3 POP DUP3 PUSH2 0x82E JUMPI PUSH2 0x82D PUSH2 0x7DC JUMP JUMPDEST JUMPDEST DUP3 DUP3 MOD SWAP1 POP SWAP3 SWAP2 POP POP JUMP JUMPDEST PUSH32 0x6F6464204E756D62657200000000000000000000000000000000000000000000 PUSH0 DUP3 ADD MSTORE POP JUMP JUMPDEST PUSH0 PUSH2 0x86D PUSH1 0xA DUP4 PUSH2 0x4DA JUMP JUMPDEST SWAP2 POP PUSH2 0x878 DUP3 PUSH2 0x839 JUMP JUMPDEST PUSH1 0x20 DUP3 ADD SWAP1 POP SWAP2 SWAP1 POP JUMP JUMPDEST PUSH0 PUSH1 0x20 DUP3 ADD SWAP1 POP DUP2 DUP2 SUB PUSH0 DUP4 ADD MSTORE PUSH2 0x89A DUP2 PUSH2 0x861 JUMP JUMPDEST SWAP1 POP SWAP2 SWAP1 POP JUMP JUMPDEST PUSH32 0x4E487B7100000000000000000000000000000000000000000000000000000000 PUSH0 MSTORE PUSH1 0x22 PUSH1 0x4 MSTORE PUSH1 0x24 PUSH0 REVERT JUMPDEST PUSH0 PUSH1 0x2 DUP3 DIV SWAP1 POP PUSH1 0x1 DUP3 AND DUP1 PUSH2 0x8E5 JUMPI PUSH1 0x7F DUP3 AND SWAP2 POP JUMPDEST PUSH1 0x20 DUP3 LT DUP2 SUB PUSH2 0x8F8 JUMPI PUSH2 0x8F7 PUSH2 0x8A1 JUMP JUMPDEST JUMPDEST POP SWAP2 SWAP1 POP JUMP JUMPDEST PUSH0 DUP2 SWAP1 POP DUP2 PUSH0 MSTORE PUSH1 0x20 PUSH0 KECCAK256 SWAP1 POP SWAP2 SWAP1 POP JUMP JUMPDEST PUSH0 PUSH1 0x20 PUSH1 0x1F DUP4 ADD DIV SWAP1 POP SWAP2 SWAP1 POP JUMP JUMPDEST PUSH0 DUP3 DUP3 SHL SWAP1 POP SWAP3 SWAP2 POP POP JUMP JUMPDEST PUSH0 PUSH1 0x8 DUP4 MUL PUSH2 0x95A PUSH32 0xFFFFFFFFFFFFFFFFFFFFFFFFFFFFFFFFFFFFFFFFFFFFFFFFFFFFFFFFFFFFFFFF DUP3 PUSH2 0x91F JUMP JUMPDEST PUSH2 0x964 DUP7 DUP4 PUSH2 0x91F JUMP JUMPDEST SWAP6 POP DUP1 NOT DUP5 AND SWAP4 POP DUP1 DUP7 AND DUP5 OR SWAP3 POP POP POP SWAP4 SWAP3 POP POP POP JUMP JUMPDEST PUSH0 DUP2 SWAP1 POP SWAP2 SWAP1 POP JUMP JUMPDEST PUSH0 PUSH2 0x99F PUSH2 0x99A PUSH2 0x995 DUP5 PUSH2 0x439 JUMP JUMPDEST PUSH2 0x97C JUMP JUMPDEST PUSH2 0x439 JUMP JUMPDEST SWAP1 POP SWAP2 SWAP1 POP JUMP JUMPDEST PUSH0 DUP2 SWAP1 POP SWAP2 SWAP1 POP JUMP JUMPDEST PUSH2 0x9B8 DUP4 PUSH2 0x985 JUMP JUMPDEST PUSH2 0x9CC PUSH2 0x9C4 DUP3 PUSH2 0x9A6 JUMP JUMPDEST DUP5 DUP5 SLOAD PUSH2 0x92B JUMP JUMPDEST DUP3 SSTORE POP POP POP POP JUMP JUMPDEST PUSH0 SWAP1 JUMP JUMPDEST PUSH2 0x9E0 PUSH2 0x9D4 JUMP JUMPDEST PUSH2 0x9EB DUP2 DUP5 DUP5 PUSH2 0x9AF JUMP JUMPDEST POP POP POP JUMP JUMPDEST JUMPDEST DUP2 DUP2 LT ISZERO PUSH2 0xA0E JUMPI PUSH2 0xA03 PUSH0 DUP3 PUSH2 0x9D8 JUMP JUMPDEST PUSH1 0x1 DUP2 ADD SWAP1 POP PUSH2 0x9F1 JUMP JUMPDEST POP POP JUMP JUMPDEST PUSH1 0x1F DUP3 GT ISZERO PUSH2 0xA53 JUMPI PUSH2 0xA24 DUP2 PUSH2 0x8FE JUMP JUMPDEST PUSH2 0xA2D DUP5 PUSH2 0x910 JUMP JUMPDEST DUP2 ADD PUSH1 0x20 DUP6 LT ISZERO PUSH2 0xA3C JUMPI DUP2 SWAP1 POP JUMPDEST PUSH2 0xA50 PUSH2 0xA48 DUP6 PUSH2 0x910 JUMP JUMPDEST DUP4 ADD DUP3 PUSH2 0x9F0 JUMP JUMPDEST POP POP JUMPDEST POP POP POP JUMP JUMPDEST PUSH0 DUP3 DUP3 SHR SWAP1 POP SWAP3 SWAP2 POP POP JUMP JUMPDEST PUSH0 PUSH2 0xA73 PUSH0 NOT DUP5 PUSH1 0x8 MUL PUSH2 0xA58 JUMP JUMPDEST NOT DUP1 DUP4 AND SWAP2 POP POP SWAP3 SWAP2 POP POP JUMP JUMPDEST PUSH0 PUSH2 0xA8B DUP4 DUP4 PUSH2 0xA64 JUMP JUMPDEST SWAP2 POP DUP3 PUSH1 0x2 MUL DUP3 OR SWAP1 POP SWAP3 SWAP2 POP POP JUMP JUMPDEST PUSH2 0xAA4 DUP3 PUSH2 0x4D0 JUMP JUMPDEST PUSH8 0xFFFFFFFFFFFFFFFF DUP2 GT ISZERO PUSH2 0xABD JUMPI PUSH2 0xABC PUSH2 0x568 JUMP JUMPDEST JUMPDEST PUSH2 0xAC7 DUP3 SLOAD PUSH2 0x8CE JUMP JUMPDEST PUSH2 0xAD2 DUP3 DUP3 DUP6 PUSH2 0xA12 JUMP JUMPDEST PUSH0 PUSH1 0x20 SWAP1 POP PUSH1 0x1F DUP4 GT PUSH1 0x1 DUP2 EQ PUSH2 0xB03 JUMPI PUSH0 DUP5 ISZERO PUSH2 0xAF1 JUMPI DUP3 DUP8 ADD MLOAD SWAP1 POP JUMPDEST PUSH2 0xAFB DUP6 DUP3 PUSH2 0xA80 JUMP JUMPDEST DUP7 SSTORE POP PUSH2 0xB62 JUMP JUMPDEST PUSH1 0x1F NOT DUP5 AND PUSH2 0xB11 DUP7 PUSH2 0x8FE JUMP JUMPDEST PUSH0 JUMPDEST DUP3 DUP2 LT ISZERO PUSH2 0xB38 JUMPI DUP5 DUP10 ADD MLOAD DUP3 SSTORE PUSH1 0x1 DUP3 ADD SWAP2 POP PUSH1 0x20 DUP6 ADD SWAP5 POP PUSH1 0x20 DUP2 ADD SWAP1 POP PUSH2 0xB13 JUMP JUMPDEST DUP7 DUP4 LT ISZERO PUSH2 0xB55 JUMPI DUP5 DUP10 ADD MLOAD PUSH2 0xB51 PUSH1 0x1F DUP10 AND DUP3 PUSH2 0xA64 JUMP JUMPDEST DUP4 SSTORE POP JUMPDEST PUSH1 0x1 PUSH1 0x2 DUP9 MUL ADD DUP9 SSTORE POP POP POP JUMPDEST POP POP POP POP POP POP JUMP JUMPDEST PUSH0 DUP2 SWAP1 POP SWAP3 SWAP2 POP POP JUMP JUMPDEST PUSH0 PUSH2 0xB7E DUP3 PUSH2 0x4D0 JUMP JUMPDEST PUSH2 0xB88 DUP2 DUP6 PUSH2 0xB6A JUMP JUMPDEST SWAP4 POP PUSH2 0xB98 DUP2 DUP6 PUSH1 0x20 DUP7 ADD PUSH2 0x4EA JUMP JUMPDEST DUP1 DUP5 ADD SWAP2 POP POP SWAP3 SWAP2 POP POP JUMP JUMPDEST PUSH0 PUSH2 0xBAF DUP3 DUP6 PUSH2 0xB74 JUMP JUMPDEST SWAP2 POP PUSH2 0xBBB DUP3 DUP5 PUSH2 0xB74 JUMP JUMPDEST SWAP2 POP DUP2 SWAP1 POP SWAP4 SWAP3 POP POP POP JUMP JUMPDEST PUSH0 PUSH2 0xBD1 DUP3 PUSH2 0x439 JUMP JUMPDEST SWAP2 POP PUSH0 DUP3 SUB PUSH2 0xBE3 JUMPI PUSH2 0xBE2 PUSH2 0x735 JUMP JUMPDEST JUMPDEST PUSH1 0x1 DUP3 SUB SWAP1 POP SWAP2 SWAP1 POP JUMP JUMPDEST PUSH0 PUSH20 0xFFFFFFFFFFFFFFFFFFFFFFFFFFFFFFFFFFFFFFFF DUP3 AND SWAP1 POP SWAP2 SWAP1 POP JUMP JUMPDEST PUSH0 PUSH2 0xC17 DUP3 PUSH2 0xBEE JUMP JUMPDEST SWAP1 POP SWAP2 SWAP1 POP JUMP JUMPDEST PUSH2 0xC27 DUP2 PUSH2 0xC0D JUMP JUMPDEST DUP3 MSTORE POP POP JUMP JUMPDEST PUSH0 PUSH1 0x20 DUP3 ADD SWAP1 POP PUSH2 0xC40 PUSH0 DUP4 ADD DUP5 PUSH2 0xC1E JUMP JUMPDEST SWAP3 SWAP2 POP POP JUMP INVALID LOG2 PUSH5 0x6970667358 0x22 SLT KECCAK256 CALLDATALOAD 0xDD EQ PUSH8 0xED181E81FCD3920C 0xB3 LOG0 0x29 0xC7 SWAP16 LOG4 SWAP6 0xDD 0x2B LOG2 SELFDESTRUCT 0xCD INVALID PUSH4 0x8F49876F SWAP7 0xE8 PUSH5 0x736F6C6343 STOP ADDMOD BYTE STOP CALLER "
				},
				"gasEstimates": {
					"creation": {
						"codeDepositCost": "639200",
						"executionCost": "infinite",
						"totalCost": "infinite"
					},
					"external": {
						"add()": "infinite",
						"attendence()": "28941",
						"dec()": "infinite",
						"inc()": "infinite",
						"numCheck()": "infinite",
						"printSender()": "1444",
						"requireUsingEvenOdd(uint256)": "infinite",
						"stringConcatinate(string,string)": "infinite"
					}
				},
				"methodIdentifiers": {
					"add()": "4f2be91f",
					"attendence()": "a90d89be",
					"dec()": "b3bcfa82",
					"inc()": "371303c0",
					"numCheck()": "94caf3af",
					"printSender()": "d803817a",
					"requireUsingEvenOdd(uint256)": "6b709e81",
					"stringConcatinate(string,string)": "9d7e1308"
				}
			},
			"storageLayout": {
				"storage": [
					{
						"astId": 4,
						"contract": "contracts/MyContracts/lec01.sol:MyContracts",
						"label": "message",
						"offset": 0,
						"slot": "0",
						"type": "t_string_storage"
					},
					{
						"astId": 7,
						"contract": "contracts/MyContracts/lec01.sol:MyContracts",
						"label": "a",
						"offset": 0,
						"slot": "1",
						"type": "t_uint256"
					},
					{
						"astId": 10,
						"contract": "contracts/MyContracts/lec01.sol:MyContracts",
						"label": "b",
						"offset": 0,
						"slot": "2",
						"type": "t_uint256"
					},
					{
						"astId": 13,
						"contract": "contracts/MyContracts/lec01.sol:MyContracts",
						"label": "isPresent",
						"offset": 0,
						"slot": "3",
						"type": "t_bool"
					},
					{
						"astId": 16,
						"contract": "contracts/MyContracts/lec01.sol:MyContracts",
						"label": "hello",
						"offset": 0,
						"slot": "4",
						"type": "t_string_storage"
					},
					{
						"astId": 19,
						"contract": "contracts/MyContracts/lec01.sol:MyContracts",
						"label": "world",
						"offset": 0,
						"slot": "5",
						"type": "t_string_storage"
					},
					{
						"astId": 71,
						"contract": "contracts/MyContracts/lec01.sol:MyContracts",
						"label": "ans",
						"offset": 0,
						"slot": "6",
						"type": "t_string_storage"
					}
				],
				"types": {
					"t_bool": {
						"encoding": "inplace",
						"label": "bool",
						"numberOfBytes": "1"
					},
					"t_string_storage": {
						"encoding": "bytes",
						"label": "string",
						"numberOfBytes": "32"
					},
					"t_uint256": {
						"encoding": "inplace",
						"label": "uint256",
						"numberOfBytes": "32"
					}
				}
			},
			"userdoc": {
				"kind": "user",
				"methods": {},
				"version": 1
			}
		}
	}
}